{
	"contracts/20 Error.sol": {
		"Error": {
			"abi": [
				{
					"inputs": [
						{
							"internalType": "uint256",
							"name": "balance",
							"type": "uint256"
						},
						{
							"internalType": "uint256",
							"name": "withdrawAmount",
							"type": "uint256"
						}
					],
					"name": "InsufficientBalance",
					"type": "error"
				},
				{
					"inputs": [],
					"name": "num",
					"outputs": [
						{
							"internalType": "uint256",
							"name": "",
							"type": "uint256"
						}
					],
					"stateMutability": "view",
					"type": "function"
				},
				{
					"inputs": [],
					"name": "testAssert",
					"outputs": [],
					"stateMutability": "view",
					"type": "function"
				},
				{
					"inputs": [
						{
							"internalType": "uint256",
							"name": "_withdrawAmount",
							"type": "uint256"
						}
					],
					"name": "testCustomError",
					"outputs": [],
					"stateMutability": "view",
					"type": "function"
				},
				{
					"inputs": [
						{
							"internalType": "uint256",
							"name": "_i",
							"type": "uint256"
						}
					],
					"name": "testRequire",
					"outputs": [],
					"stateMutability": "pure",
					"type": "function"
				},
				{
					"inputs": [
						{
							"internalType": "uint256",
							"name": "_i",
							"type": "uint256"
						}
					],
					"name": "testRevert",
					"outputs": [],
					"stateMutability": "pure",
					"type": "function"
				}
			],
			"devdoc": {
				"kind": "dev",
				"methods": {},
				"version": 1
			},
			"evm": {
				"assembly": "    /* \"contracts/20 Error.sol\":57:1378  contract Error {... */\n  mstore(0x40, 0x80)\n  callvalue\n  dup1\n  iszero\n  tag_1\n  jumpi\n  0x00\n  dup1\n  revert\ntag_1:\n  pop\n  dataSize(sub_0)\n  dup1\n  dataOffset(sub_0)\n  0x00\n  codecopy\n  0x00\n  return\nstop\n\nsub_0: assembly {\n        /* \"contracts/20 Error.sol\":57:1378  contract Error {... */\n      mstore(0x40, 0x80)\n      callvalue\n      dup1\n      iszero\n      tag_1\n      jumpi\n      0x00\n      dup1\n      revert\n    tag_1:\n      pop\n      jumpi(tag_2, lt(calldatasize, 0x04))\n      shr(0xe0, calldataload(0x00))\n      dup1\n      0x20987767\n      eq\n      tag_3\n      jumpi\n      dup1\n      0x2b813bc0\n      eq\n      tag_4\n      jumpi\n      dup1\n      0x4e70b1dc\n      eq\n      tag_5\n      jumpi\n      dup1\n      0x75f7286c\n      eq\n      tag_6\n      jumpi\n      dup1\n      0xb8bd717f\n      eq\n      tag_7\n      jumpi\n    tag_2:\n      0x00\n      dup1\n      revert\n        /* \"contracts/20 Error.sol\":409:679  function testRevert(uint _i) public pure {... */\n    tag_3:\n      tag_8\n      0x04\n      dup1\n      calldatasize\n      sub\n      dup2\n      add\n      swap1\n      tag_9\n      swap2\n      swap1\n      tag_10\n      jump\t// in\n    tag_9:\n      tag_11\n      jump\t// in\n    tag_8:\n      stop\n        /* \"contracts/20 Error.sol\":743:963  function testAssert() public view {... */\n    tag_4:\n      tag_12\n      tag_13\n      jump\t// in\n    tag_12:\n      stop\n        /* \"contracts/20 Error.sol\":685:700  uint public num */\n    tag_5:\n      tag_14\n      tag_15\n      jump\t// in\n    tag_14:\n      mload(0x40)\n      tag_16\n      swap2\n      swap1\n      tag_17\n      jump\t// in\n    tag_16:\n      mload(0x40)\n      dup1\n      swap2\n      sub\n      swap1\n      return\n        /* \"contracts/20 Error.sol\":1061:1376  function testCustomError(uint _withdrawAmount) public view {... */\n    tag_6:\n      tag_18\n      0x04\n      dup1\n      calldatasize\n      sub\n      dup2\n      add\n      swap1\n      tag_19\n      swap2\n      swap1\n      tag_10\n      jump\t// in\n    tag_19:\n      tag_20\n      jump\t// in\n    tag_18:\n      stop\n        /* \"contracts/20 Error.sol\":114:368  function testRequire(uint _i) public pure {... */\n    tag_7:\n      tag_21\n      0x04\n      dup1\n      calldatasize\n      sub\n      dup2\n      add\n      swap1\n      tag_22\n      swap2\n      swap1\n      tag_10\n      jump\t// in\n    tag_22:\n      tag_23\n      jump\t// in\n    tag_21:\n      stop\n        /* \"contracts/20 Error.sol\":409:679  function testRevert(uint _i) public pure {... */\n    tag_11:\n        /* \"contracts/20 Error.sol\":603:605  10 */\n      0x0a\n        /* \"contracts/20 Error.sol\":597:599  _i */\n      dup2\n        /* \"contracts/20 Error.sol\":597:605  _i <= 10 */\n      gt\n        /* \"contracts/20 Error.sol\":593:673  if (_i <= 10) {... */\n      tag_25\n      jumpi\n        /* \"contracts/20 Error.sol\":621:662  revert(\"Input harus lebih besar dari 10\") */\n      mload(0x40)\n      0x08c379a000000000000000000000000000000000000000000000000000000000\n      dup2\n      mstore\n      0x04\n      add\n      tag_26\n      swap1\n      tag_27\n      jump\t// in\n    tag_26:\n      mload(0x40)\n      dup1\n      swap2\n      sub\n      swap1\n      revert\n        /* \"contracts/20 Error.sol\":593:673  if (_i <= 10) {... */\n    tag_25:\n        /* \"contracts/20 Error.sol\":409:679  function testRevert(uint _i) public pure {... */\n      pop\n      jump\t// out\n        /* \"contracts/20 Error.sol\":743:963  function testAssert() public view {... */\n    tag_13:\n        /* \"contracts/20 Error.sol\":954:955  0 */\n      0x00\n        /* \"contracts/20 Error.sol\":947:950  num */\n      dup1\n      sload\n        /* \"contracts/20 Error.sol\":947:955  num == 0 */\n      eq\n        /* \"contracts/20 Error.sol\":940:956  assert(num == 0) */\n      tag_29\n      jumpi\n      tag_30\n      tag_31\n      jump\t// in\n    tag_30:\n    tag_29:\n        /* \"contracts/20 Error.sol\":743:963  function testAssert() public view {... */\n      jump\t// out\n        /* \"contracts/20 Error.sol\":685:700  uint public num */\n    tag_15:\n      sload(0x00)\n      dup2\n      jump\t// out\n        /* \"contracts/20 Error.sol\":1061:1376  function testCustomError(uint _withdrawAmount) public view {... */\n    tag_20:\n        /* \"contracts/20 Error.sol\":1130:1138  uint bal */\n      0x00\n        /* \"contracts/20 Error.sol\":1141:1162  address(this).balance */\n      selfbalance\n        /* \"contracts/20 Error.sol\":1130:1162  uint bal = address(this).balance */\n      swap1\n      pop\n        /* \"contracts/20 Error.sol\":1182:1197  _withdrawAmount */\n      dup2\n        /* \"contracts/20 Error.sol\":1176:1179  bal */\n      dup2\n        /* \"contracts/20 Error.sol\":1176:1197  bal < _withdrawAmount */\n      lt\n        /* \"contracts/20 Error.sol\":1172:1370  if (bal < _withdrawAmount) {... */\n      iszero\n      tag_33\n      jumpi\n        /* \"contracts/20 Error.sol\":1320:1323  bal */\n      dup1\n        /* \"contracts/20 Error.sol\":1341:1356  _withdrawAmount */\n      dup3\n        /* \"contracts/20 Error.sol\":1290:1359  InsufficientBalance({balance: bal, withdrawAmount: _withdrawAmount }) */\n      mload(0x40)\n      0xcf47918100000000000000000000000000000000000000000000000000000000\n      dup2\n      mstore\n      0x04\n      add\n      tag_34\n      swap3\n      swap2\n      swap1\n      tag_35\n      jump\t// in\n    tag_34:\n      mload(0x40)\n      dup1\n      swap2\n      sub\n      swap1\n      revert\n        /* \"contracts/20 Error.sol\":1172:1370  if (bal < _withdrawAmount) {... */\n    tag_33:\n        /* \"contracts/20 Error.sol\":1120:1376  {... */\n      pop\n        /* \"contracts/20 Error.sol\":1061:1376  function testCustomError(uint _withdrawAmount) public view {... */\n      pop\n      jump\t// out\n        /* \"contracts/20 Error.sol\":114:368  function testRequire(uint _i) public pure {... */\n    tag_23:\n        /* \"contracts/20 Error.sol\":327:329  10 */\n      0x0a\n        /* \"contracts/20 Error.sol\":322:324  _i */\n      dup2\n        /* \"contracts/20 Error.sol\":322:329  _i > 10 */\n      gt\n        /* \"contracts/20 Error.sol\":314:361  require(_i > 10, \"Input harus lebih dari 10 !\") */\n      tag_37\n      jumpi\n      mload(0x40)\n      0x08c379a000000000000000000000000000000000000000000000000000000000\n      dup2\n      mstore\n      0x04\n      add\n      tag_38\n      swap1\n      tag_39\n      jump\t// in\n    tag_38:\n      mload(0x40)\n      dup1\n      swap2\n      sub\n      swap1\n      revert\n    tag_37:\n        /* \"contracts/20 Error.sol\":114:368  function testRequire(uint _i) public pure {... */\n      pop\n      jump\t// out\n        /* \"#utility.yul\":88:205   */\n    tag_41:\n        /* \"#utility.yul\":197:198   */\n      0x00\n        /* \"#utility.yul\":194:195   */\n      dup1\n        /* \"#utility.yul\":187:199   */\n      revert\n        /* \"#utility.yul\":334:411   */\n    tag_43:\n        /* \"#utility.yul\":371:378   */\n      0x00\n        /* \"#utility.yul\":400:405   */\n      dup2\n        /* \"#utility.yul\":389:405   */\n      swap1\n      pop\n        /* \"#utility.yul\":334:411   */\n      swap2\n      swap1\n      pop\n      jump\t// out\n        /* \"#utility.yul\":417:539   */\n    tag_44:\n        /* \"#utility.yul\":490:514   */\n      tag_58\n        /* \"#utility.yul\":508:513   */\n      dup2\n        /* \"#utility.yul\":490:514   */\n      tag_43\n      jump\t// in\n    tag_58:\n        /* \"#utility.yul\":483:488   */\n      dup2\n        /* \"#utility.yul\":480:515   */\n      eq\n        /* \"#utility.yul\":470:533   */\n      tag_59\n      jumpi\n        /* \"#utility.yul\":529:530   */\n      0x00\n        /* \"#utility.yul\":526:527   */\n      dup1\n        /* \"#utility.yul\":519:531   */\n      revert\n        /* \"#utility.yul\":470:533   */\n    tag_59:\n        /* \"#utility.yul\":417:539   */\n      pop\n      jump\t// out\n        /* \"#utility.yul\":545:684   */\n    tag_45:\n        /* \"#utility.yul\":591:596   */\n      0x00\n        /* \"#utility.yul\":629:635   */\n      dup2\n        /* \"#utility.yul\":616:636   */\n      calldataload\n        /* \"#utility.yul\":607:636   */\n      swap1\n      pop\n        /* \"#utility.yul\":645:678   */\n      tag_61\n        /* \"#utility.yul\":672:677   */\n      dup2\n        /* \"#utility.yul\":645:678   */\n      tag_44\n      jump\t// in\n    tag_61:\n        /* \"#utility.yul\":545:684   */\n      swap3\n      swap2\n      pop\n      pop\n      jump\t// out\n        /* \"#utility.yul\":690:1019   */\n    tag_10:\n        /* \"#utility.yul\":749:755   */\n      0x00\n        /* \"#utility.yul\":798:800   */\n      0x20\n        /* \"#utility.yul\":786:795   */\n      dup3\n        /* \"#utility.yul\":777:784   */\n      dup5\n        /* \"#utility.yul\":773:796   */\n      sub\n        /* \"#utility.yul\":769:801   */\n      slt\n        /* \"#utility.yul\":766:885   */\n      iszero\n      tag_63\n      jumpi\n        /* \"#utility.yul\":804:883   */\n      tag_64\n      tag_41\n      jump\t// in\n    tag_64:\n        /* \"#utility.yul\":766:885   */\n    tag_63:\n        /* \"#utility.yul\":924:925   */\n      0x00\n        /* \"#utility.yul\":949:1002   */\n      tag_65\n        /* \"#utility.yul\":994:1001   */\n      dup5\n        /* \"#utility.yul\":985:991   */\n      dup3\n        /* \"#utility.yul\":974:983   */\n      dup6\n        /* \"#utility.yul\":970:992   */\n      add\n        /* \"#utility.yul\":949:1002   */\n      tag_45\n      jump\t// in\n    tag_65:\n        /* \"#utility.yul\":939:1002   */\n      swap2\n      pop\n        /* \"#utility.yul\":895:1012   */\n      pop\n        /* \"#utility.yul\":690:1019   */\n      swap3\n      swap2\n      pop\n      pop\n      jump\t// out\n        /* \"#utility.yul\":1025:1143   */\n    tag_46:\n        /* \"#utility.yul\":1112:1136   */\n      tag_67\n        /* \"#utility.yul\":1130:1135   */\n      dup2\n        /* \"#utility.yul\":1112:1136   */\n      tag_43\n      jump\t// in\n    tag_67:\n        /* \"#utility.yul\":1107:1110   */\n      dup3\n        /* \"#utility.yul\":1100:1137   */\n      mstore\n        /* \"#utility.yul\":1025:1143   */\n      pop\n      pop\n      jump\t// out\n        /* \"#utility.yul\":1149:1371   */\n    tag_17:\n        /* \"#utility.yul\":1242:1246   */\n      0x00\n        /* \"#utility.yul\":1280:1282   */\n      0x20\n        /* \"#utility.yul\":1269:1278   */\n      dup3\n        /* \"#utility.yul\":1265:1283   */\n      add\n        /* \"#utility.yul\":1257:1283   */\n      swap1\n      pop\n        /* \"#utility.yul\":1293:1364   */\n      tag_69\n        /* \"#utility.yul\":1361:1362   */\n      0x00\n        /* \"#utility.yul\":1350:1359   */\n      dup4\n        /* \"#utility.yul\":1346:1363   */\n      add\n        /* \"#utility.yul\":1337:1343   */\n      dup5\n        /* \"#utility.yul\":1293:1364   */\n      tag_46\n      jump\t// in\n    tag_69:\n        /* \"#utility.yul\":1149:1371   */\n      swap3\n      swap2\n      pop\n      pop\n      jump\t// out\n        /* \"#utility.yul\":1377:1546   */\n    tag_47:\n        /* \"#utility.yul\":1461:1472   */\n      0x00\n        /* \"#utility.yul\":1495:1501   */\n      dup3\n        /* \"#utility.yul\":1490:1493   */\n      dup3\n        /* \"#utility.yul\":1483:1502   */\n      mstore\n        /* \"#utility.yul\":1535:1539   */\n      0x20\n        /* \"#utility.yul\":1530:1533   */\n      dup3\n        /* \"#utility.yul\":1526:1540   */\n      add\n        /* \"#utility.yul\":1511:1540   */\n      swap1\n      pop\n        /* \"#utility.yul\":1377:1546   */\n      swap3\n      swap2\n      pop\n      pop\n      jump\t// out\n        /* \"#utility.yul\":1552:1733   */\n    tag_48:\n        /* \"#utility.yul\":1692:1725   */\n      0x496e707574206861727573206c65626968206265736172206461726920313000\n        /* \"#utility.yul\":1688:1689   */\n      0x00\n        /* \"#utility.yul\":1680:1686   */\n      dup3\n        /* \"#utility.yul\":1676:1690   */\n      add\n        /* \"#utility.yul\":1669:1726   */\n      mstore\n        /* \"#utility.yul\":1552:1733   */\n      pop\n      jump\t// out\n        /* \"#utility.yul\":1739:2105   */\n    tag_49:\n        /* \"#utility.yul\":1881:1884   */\n      0x00\n        /* \"#utility.yul\":1902:1969   */\n      tag_73\n        /* \"#utility.yul\":1966:1968   */\n      0x1f\n        /* \"#utility.yul\":1961:1964   */\n      dup4\n        /* \"#utility.yul\":1902:1969   */\n      tag_47\n      jump\t// in\n    tag_73:\n        /* \"#utility.yul\":1895:1969   */\n      swap2\n      pop\n        /* \"#utility.yul\":1978:2071   */\n      tag_74\n        /* \"#utility.yul\":2067:2070   */\n      dup3\n        /* \"#utility.yul\":1978:2071   */\n      tag_48\n      jump\t// in\n    tag_74:\n        /* \"#utility.yul\":2096:2098   */\n      0x20\n        /* \"#utility.yul\":2091:2094   */\n      dup3\n        /* \"#utility.yul\":2087:2099   */\n      add\n        /* \"#utility.yul\":2080:2099   */\n      swap1\n      pop\n        /* \"#utility.yul\":1739:2105   */\n      swap2\n      swap1\n      pop\n      jump\t// out\n        /* \"#utility.yul\":2111:2530   */\n    tag_27:\n        /* \"#utility.yul\":2277:2281   */\n      0x00\n        /* \"#utility.yul\":2315:2317   */\n      0x20\n        /* \"#utility.yul\":2304:2313   */\n      dup3\n        /* \"#utility.yul\":2300:2318   */\n      add\n        /* \"#utility.yul\":2292:2318   */\n      swap1\n      pop\n        /* \"#utility.yul\":2364:2373   */\n      dup2\n        /* \"#utility.yul\":2358:2362   */\n      dup2\n        /* \"#utility.yul\":2354:2374   */\n      sub\n        /* \"#utility.yul\":2350:2351   */\n      0x00\n        /* \"#utility.yul\":2339:2348   */\n      dup4\n        /* \"#utility.yul\":2335:2352   */\n      add\n        /* \"#utility.yul\":2328:2375   */\n      mstore\n        /* \"#utility.yul\":2392:2523   */\n      tag_76\n        /* \"#utility.yul\":2518:2522   */\n      dup2\n        /* \"#utility.yul\":2392:2523   */\n      tag_49\n      jump\t// in\n    tag_76:\n        /* \"#utility.yul\":2384:2523   */\n      swap1\n      pop\n        /* \"#utility.yul\":2111:2530   */\n      swap2\n      swap1\n      pop\n      jump\t// out\n        /* \"#utility.yul\":2536:2716   */\n    tag_31:\n        /* \"#utility.yul\":2584:2661   */\n      0x4e487b7100000000000000000000000000000000000000000000000000000000\n        /* \"#utility.yul\":2581:2582   */\n      0x00\n        /* \"#utility.yul\":2574:2662   */\n      mstore\n        /* \"#utility.yul\":2681:2685   */\n      0x01\n        /* \"#utility.yul\":2678:2679   */\n      0x04\n        /* \"#utility.yul\":2671:2686   */\n      mstore\n        /* \"#utility.yul\":2705:2709   */\n      0x24\n        /* \"#utility.yul\":2702:2703   */\n      0x00\n        /* \"#utility.yul\":2695:2710   */\n      revert\n        /* \"#utility.yul\":2722:3054   */\n    tag_35:\n        /* \"#utility.yul\":2843:2847   */\n      0x00\n        /* \"#utility.yul\":2881:2883   */\n      0x40\n        /* \"#utility.yul\":2870:2879   */\n      dup3\n        /* \"#utility.yul\":2866:2884   */\n      add\n        /* \"#utility.yul\":2858:2884   */\n      swap1\n      pop\n        /* \"#utility.yul\":2894:2965   */\n      tag_79\n        /* \"#utility.yul\":2962:2963   */\n      0x00\n        /* \"#utility.yul\":2951:2960   */\n      dup4\n        /* \"#utility.yul\":2947:2964   */\n      add\n        /* \"#utility.yul\":2938:2944   */\n      dup6\n        /* \"#utility.yul\":2894:2965   */\n      tag_46\n      jump\t// in\n    tag_79:\n        /* \"#utility.yul\":2975:3047   */\n      tag_80\n        /* \"#utility.yul\":3043:3045   */\n      0x20\n        /* \"#utility.yul\":3032:3041   */\n      dup4\n        /* \"#utility.yul\":3028:3046   */\n      add\n        /* \"#utility.yul\":3019:3025   */\n      dup5\n        /* \"#utility.yul\":2975:3047   */\n      tag_46\n      jump\t// in\n    tag_80:\n        /* \"#utility.yul\":2722:3054   */\n      swap4\n      swap3\n      pop\n      pop\n      pop\n      jump\t// out\n        /* \"#utility.yul\":3060:3237   */\n    tag_50:\n        /* \"#utility.yul\":3200:3229   */\n      0x496e707574206861727573206c65626968206461726920313020210000000000\n        /* \"#utility.yul\":3196:3197   */\n      0x00\n        /* \"#utility.yul\":3188:3194   */\n      dup3\n        /* \"#utility.yul\":3184:3198   */\n      add\n        /* \"#utility.yul\":3177:3230   */\n      mstore\n        /* \"#utility.yul\":3060:3237   */\n      pop\n      jump\t// out\n        /* \"#utility.yul\":3243:3609   */\n    tag_51:\n        /* \"#utility.yul\":3385:3388   */\n      0x00\n        /* \"#utility.yul\":3406:3473   */\n      tag_83\n        /* \"#utility.yul\":3470:3472   */\n      0x1b\n        /* \"#utility.yul\":3465:3468   */\n      dup4\n        /* \"#utility.yul\":3406:3473   */\n      tag_47\n      jump\t// in\n    tag_83:\n        /* \"#utility.yul\":3399:3473   */\n      swap2\n      pop\n        /* \"#utility.yul\":3482:3575   */\n      tag_84\n        /* \"#utility.yul\":3571:3574   */\n      dup3\n        /* \"#utility.yul\":3482:3575   */\n      tag_50\n      jump\t// in\n    tag_84:\n        /* \"#utility.yul\":3600:3602   */\n      0x20\n        /* \"#utility.yul\":3595:3598   */\n      dup3\n        /* \"#utility.yul\":3591:3603   */\n      add\n        /* \"#utility.yul\":3584:3603   */\n      swap1\n      pop\n        /* \"#utility.yul\":3243:3609   */\n      swap2\n      swap1\n      pop\n      jump\t// out\n        /* \"#utility.yul\":3615:4034   */\n    tag_39:\n        /* \"#utility.yul\":3781:3785   */\n      0x00\n        /* \"#utility.yul\":3819:3821   */\n      0x20\n        /* \"#utility.yul\":3808:3817   */\n      dup3\n        /* \"#utility.yul\":3804:3822   */\n      add\n        /* \"#utility.yul\":3796:3822   */\n      swap1\n      pop\n        /* \"#utility.yul\":3868:3877   */\n      dup2\n        /* \"#utility.yul\":3862:3866   */\n      dup2\n        /* \"#utility.yul\":3858:3878   */\n      sub\n        /* \"#utility.yul\":3854:3855   */\n      0x00\n        /* \"#utility.yul\":3843:3852   */\n      dup4\n        /* \"#utility.yul\":3839:3856   */\n      add\n        /* \"#utility.yul\":3832:3879   */\n      mstore\n        /* \"#utility.yul\":3896:4027   */\n      tag_86\n        /* \"#utility.yul\":4022:4026   */\n      dup2\n        /* \"#utility.yul\":3896:4027   */\n      tag_51\n      jump\t// in\n    tag_86:\n        /* \"#utility.yul\":3888:4027   */\n      swap1\n      pop\n        /* \"#utility.yul\":3615:4034   */\n      swap2\n      swap1\n      pop\n      jump\t// out\n\n    auxdata: 0xa26469706673582212205de1149ee826e8b803a7511dab832630687180f89e9ce532a5f524de509d1f7964736f6c63430008120033\n}\n",
				"bytecode": {
					"linkReferences": {},
					"object": "608060405234801561001057600080fd5b506103d7806100206000396000f3fe608060405234801561001057600080fd5b50600436106100575760003560e01c8063209877671461005c5780632b813bc0146100785780634e70b1dc1461008257806375f7286c146100a0578063b8bd717f146100bc575b600080fd5b61007660048036038101906100719190610209565b6100d8565b005b61008061011e565b005b61008a610132565b6040516100979190610245565b60405180910390f35b6100ba60048036038101906100b59190610209565b610138565b005b6100d660048036038101906100d19190610209565b610188565b005b600a811161011b576040517f08c379a0000000000000000000000000000000000000000000000000000000008152600401610112906102bd565b60405180910390fd5b50565b60008054146101305761012f6102dd565b5b565b60005481565b6000479050818110156101845780826040517fcf47918100000000000000000000000000000000000000000000000000000000815260040161017b92919061030c565b60405180910390fd5b5050565b600a81116101cb576040517f08c379a00000000000000000000000000000000000000000000000000000000081526004016101c290610381565b60405180910390fd5b50565b600080fd5b6000819050919050565b6101e6816101d3565b81146101f157600080fd5b50565b600081359050610203816101dd565b92915050565b60006020828403121561021f5761021e6101ce565b5b600061022d848285016101f4565b91505092915050565b61023f816101d3565b82525050565b600060208201905061025a6000830184610236565b92915050565b600082825260208201905092915050565b7f496e707574206861727573206c65626968206265736172206461726920313000600082015250565b60006102a7601f83610260565b91506102b282610271565b602082019050919050565b600060208201905081810360008301526102d68161029a565b9050919050565b7f4e487b7100000000000000000000000000000000000000000000000000000000600052600160045260246000fd5b60006040820190506103216000830185610236565b61032e6020830184610236565b9392505050565b7f496e707574206861727573206c65626968206461726920313020210000000000600082015250565b600061036b601b83610260565b915061037682610335565b602082019050919050565b6000602082019050818103600083015261039a8161035e565b905091905056fea26469706673582212205de1149ee826e8b803a7511dab832630687180f89e9ce532a5f524de509d1f7964736f6c63430008120033",
					"opcodes": "PUSH1 0x80 PUSH1 0x40 MSTORE CALLVALUE DUP1 ISZERO PUSH2 0x10 JUMPI PUSH1 0x0 DUP1 REVERT JUMPDEST POP PUSH2 0x3D7 DUP1 PUSH2 0x20 PUSH1 0x0 CODECOPY PUSH1 0x0 RETURN INVALID PUSH1 0x80 PUSH1 0x40 MSTORE CALLVALUE DUP1 ISZERO PUSH2 0x10 JUMPI PUSH1 0x0 DUP1 REVERT JUMPDEST POP PUSH1 0x4 CALLDATASIZE LT PUSH2 0x57 JUMPI PUSH1 0x0 CALLDATALOAD PUSH1 0xE0 SHR DUP1 PUSH4 0x20987767 EQ PUSH2 0x5C JUMPI DUP1 PUSH4 0x2B813BC0 EQ PUSH2 0x78 JUMPI DUP1 PUSH4 0x4E70B1DC EQ PUSH2 0x82 JUMPI DUP1 PUSH4 0x75F7286C EQ PUSH2 0xA0 JUMPI DUP1 PUSH4 0xB8BD717F EQ PUSH2 0xBC JUMPI JUMPDEST PUSH1 0x0 DUP1 REVERT JUMPDEST PUSH2 0x76 PUSH1 0x4 DUP1 CALLDATASIZE SUB DUP2 ADD SWAP1 PUSH2 0x71 SWAP2 SWAP1 PUSH2 0x209 JUMP JUMPDEST PUSH2 0xD8 JUMP JUMPDEST STOP JUMPDEST PUSH2 0x80 PUSH2 0x11E JUMP JUMPDEST STOP JUMPDEST PUSH2 0x8A PUSH2 0x132 JUMP JUMPDEST PUSH1 0x40 MLOAD PUSH2 0x97 SWAP2 SWAP1 PUSH2 0x245 JUMP JUMPDEST PUSH1 0x40 MLOAD DUP1 SWAP2 SUB SWAP1 RETURN JUMPDEST PUSH2 0xBA PUSH1 0x4 DUP1 CALLDATASIZE SUB DUP2 ADD SWAP1 PUSH2 0xB5 SWAP2 SWAP1 PUSH2 0x209 JUMP JUMPDEST PUSH2 0x138 JUMP JUMPDEST STOP JUMPDEST PUSH2 0xD6 PUSH1 0x4 DUP1 CALLDATASIZE SUB DUP2 ADD SWAP1 PUSH2 0xD1 SWAP2 SWAP1 PUSH2 0x209 JUMP JUMPDEST PUSH2 0x188 JUMP JUMPDEST STOP JUMPDEST PUSH1 0xA DUP2 GT PUSH2 0x11B JUMPI PUSH1 0x40 MLOAD PUSH32 0x8C379A000000000000000000000000000000000000000000000000000000000 DUP2 MSTORE PUSH1 0x4 ADD PUSH2 0x112 SWAP1 PUSH2 0x2BD JUMP JUMPDEST PUSH1 0x40 MLOAD DUP1 SWAP2 SUB SWAP1 REVERT JUMPDEST POP JUMP JUMPDEST PUSH1 0x0 DUP1 SLOAD EQ PUSH2 0x130 JUMPI PUSH2 0x12F PUSH2 0x2DD JUMP JUMPDEST JUMPDEST JUMP JUMPDEST PUSH1 0x0 SLOAD DUP2 JUMP JUMPDEST PUSH1 0x0 SELFBALANCE SWAP1 POP DUP2 DUP2 LT ISZERO PUSH2 0x184 JUMPI DUP1 DUP3 PUSH1 0x40 MLOAD PUSH32 0xCF47918100000000000000000000000000000000000000000000000000000000 DUP2 MSTORE PUSH1 0x4 ADD PUSH2 0x17B SWAP3 SWAP2 SWAP1 PUSH2 0x30C JUMP JUMPDEST PUSH1 0x40 MLOAD DUP1 SWAP2 SUB SWAP1 REVERT JUMPDEST POP POP JUMP JUMPDEST PUSH1 0xA DUP2 GT PUSH2 0x1CB JUMPI PUSH1 0x40 MLOAD PUSH32 0x8C379A000000000000000000000000000000000000000000000000000000000 DUP2 MSTORE PUSH1 0x4 ADD PUSH2 0x1C2 SWAP1 PUSH2 0x381 JUMP JUMPDEST PUSH1 0x40 MLOAD DUP1 SWAP2 SUB SWAP1 REVERT JUMPDEST POP JUMP JUMPDEST PUSH1 0x0 DUP1 REVERT JUMPDEST PUSH1 0x0 DUP2 SWAP1 POP SWAP2 SWAP1 POP JUMP JUMPDEST PUSH2 0x1E6 DUP2 PUSH2 0x1D3 JUMP JUMPDEST DUP2 EQ PUSH2 0x1F1 JUMPI PUSH1 0x0 DUP1 REVERT JUMPDEST POP JUMP JUMPDEST PUSH1 0x0 DUP2 CALLDATALOAD SWAP1 POP PUSH2 0x203 DUP2 PUSH2 0x1DD JUMP JUMPDEST SWAP3 SWAP2 POP POP JUMP JUMPDEST PUSH1 0x0 PUSH1 0x20 DUP3 DUP5 SUB SLT ISZERO PUSH2 0x21F JUMPI PUSH2 0x21E PUSH2 0x1CE JUMP JUMPDEST JUMPDEST PUSH1 0x0 PUSH2 0x22D DUP5 DUP3 DUP6 ADD PUSH2 0x1F4 JUMP JUMPDEST SWAP2 POP POP SWAP3 SWAP2 POP POP JUMP JUMPDEST PUSH2 0x23F DUP2 PUSH2 0x1D3 JUMP JUMPDEST DUP3 MSTORE POP POP JUMP JUMPDEST PUSH1 0x0 PUSH1 0x20 DUP3 ADD SWAP1 POP PUSH2 0x25A PUSH1 0x0 DUP4 ADD DUP5 PUSH2 0x236 JUMP JUMPDEST SWAP3 SWAP2 POP POP JUMP JUMPDEST PUSH1 0x0 DUP3 DUP3 MSTORE PUSH1 0x20 DUP3 ADD SWAP1 POP SWAP3 SWAP2 POP POP JUMP JUMPDEST PUSH32 0x496E707574206861727573206C65626968206265736172206461726920313000 PUSH1 0x0 DUP3 ADD MSTORE POP JUMP JUMPDEST PUSH1 0x0 PUSH2 0x2A7 PUSH1 0x1F DUP4 PUSH2 0x260 JUMP JUMPDEST SWAP2 POP PUSH2 0x2B2 DUP3 PUSH2 0x271 JUMP JUMPDEST PUSH1 0x20 DUP3 ADD SWAP1 POP SWAP2 SWAP1 POP JUMP JUMPDEST PUSH1 0x0 PUSH1 0x20 DUP3 ADD SWAP1 POP DUP2 DUP2 SUB PUSH1 0x0 DUP4 ADD MSTORE PUSH2 0x2D6 DUP2 PUSH2 0x29A JUMP JUMPDEST SWAP1 POP SWAP2 SWAP1 POP JUMP JUMPDEST PUSH32 0x4E487B7100000000000000000000000000000000000000000000000000000000 PUSH1 0x0 MSTORE PUSH1 0x1 PUSH1 0x4 MSTORE PUSH1 0x24 PUSH1 0x0 REVERT JUMPDEST PUSH1 0x0 PUSH1 0x40 DUP3 ADD SWAP1 POP PUSH2 0x321 PUSH1 0x0 DUP4 ADD DUP6 PUSH2 0x236 JUMP JUMPDEST PUSH2 0x32E PUSH1 0x20 DUP4 ADD DUP5 PUSH2 0x236 JUMP JUMPDEST SWAP4 SWAP3 POP POP POP JUMP JUMPDEST PUSH32 0x496E707574206861727573206C65626968206461726920313020210000000000 PUSH1 0x0 DUP3 ADD MSTORE POP JUMP JUMPDEST PUSH1 0x0 PUSH2 0x36B PUSH1 0x1B DUP4 PUSH2 0x260 JUMP JUMPDEST SWAP2 POP PUSH2 0x376 DUP3 PUSH2 0x335 JUMP JUMPDEST PUSH1 0x20 DUP3 ADD SWAP1 POP SWAP2 SWAP1 POP JUMP JUMPDEST PUSH1 0x0 PUSH1 0x20 DUP3 ADD SWAP1 POP DUP2 DUP2 SUB PUSH1 0x0 DUP4 ADD MSTORE PUSH2 0x39A DUP2 PUSH2 0x35E JUMP JUMPDEST SWAP1 POP SWAP2 SWAP1 POP JUMP INVALID LOG2 PUSH5 0x6970667358 0x22 SLT KECCAK256 0x5D 0xE1 EQ SWAP15 0xE8 0x26 0xE8 0xB8 SUB 0xA7 MLOAD SAR 0xAB DUP4 0x26 ADDRESS PUSH9 0x7180F89E9CE532A5F5 0x24 0xDE POP SWAP14 0x1F PUSH26 0x64736F6C63430008120033000000000000000000000000000000 "
				},
				"gasEstimates": {
					"creation": {
						"codeDepositCost": "196600",
						"executionCost": "238",
						"totalCost": "196838"
					},
					"external": {
						"num()": "2451",
						"testAssert()": "2296",
						"testCustomError(uint256)": "infinite",
						"testRequire(uint256)": "782",
						"testRevert(uint256)": "694"
					}
				},
				"methodIdentifiers": {
					"num()": "4e70b1dc",
					"testAssert()": "2b813bc0",
					"testCustomError(uint256)": "75f7286c",
					"testRequire(uint256)": "b8bd717f",
					"testRevert(uint256)": "20987767"
				}
			},
			"storageLayout": {
				"storage": [
					{
						"astId": 31,
						"contract": "contracts/20 Error.sol:Error",
						"label": "num",
						"offset": 0,
						"slot": "0",
						"type": "t_uint256"
					}
				],
				"types": {
					"t_uint256": {
						"encoding": "inplace",
						"label": "uint256",
						"numberOfBytes": "32"
					}
				}
			},
			"userdoc": {
				"kind": "user",
				"methods": {},
				"version": 1
			}
		}
	}
}