{
	"contracts/Kalkulator-Contract.sol": {
		"Kalkulator": {
			"abi": [
				{
					"inputs": [],
					"name": "dapatkanHasil",
					"outputs": [
						{
							"internalType": "uint256",
							"name": "",
							"type": "uint256"
						}
					],
					"stateMutability": "view",
					"type": "function"
				},
				{
					"inputs": [
						{
							"internalType": "uint256",
							"name": "num",
							"type": "uint256"
						}
					],
					"name": "kali",
					"outputs": [],
					"stateMutability": "nonpayable",
					"type": "function"
				},
				{
					"inputs": [
						{
							"internalType": "uint256",
							"name": "num",
							"type": "uint256"
						}
					],
					"name": "kurang",
					"outputs": [],
					"stateMutability": "nonpayable",
					"type": "function"
				},
				{
					"inputs": [
						{
							"internalType": "uint256",
							"name": "num",
							"type": "uint256"
						}
					],
					"name": "tambah",
					"outputs": [],
					"stateMutability": "nonpayable",
					"type": "function"
				}
			],
			"devdoc": {
				"kind": "dev",
				"methods": {},
				"version": 1
			},
			"evm": {
				"assembly": "    /* \"contracts/Kalkulator-Contract.sol\":59:600  contract Kalkulator {... */\n  mstore(0x40, 0x80)\n    /* \"contracts/Kalkulator-Contract.sol\":101:102  0 */\n  0x00\n    /* \"contracts/Kalkulator-Contract.sol\":85:102  uint256 hasil = 0 */\n  dup1\n  sstore\n    /* \"contracts/Kalkulator-Contract.sol\":59:600  contract Kalkulator {... */\n  callvalue\n  dup1\n  iszero\n  tag_1\n  jumpi\n  0x00\n  dup1\n  revert\ntag_1:\n  pop\n  dataSize(sub_0)\n  dup1\n  dataOffset(sub_0)\n  0x00\n  codecopy\n  0x00\n  return\nstop\n\nsub_0: assembly {\n        /* \"contracts/Kalkulator-Contract.sol\":59:600  contract Kalkulator {... */\n      mstore(0x40, 0x80)\n      callvalue\n      dup1\n      iszero\n      tag_1\n      jumpi\n      0x00\n      dup1\n      revert\n    tag_1:\n      pop\n      jumpi(tag_2, lt(calldatasize, 0x04))\n      shr(0xe0, calldataload(0x00))\n      dup1\n      0x588d8c57\n      eq\n      tag_3\n      jumpi\n      dup1\n      0x72149a0c\n      eq\n      tag_4\n      jumpi\n      dup1\n      0x918b176b\n      eq\n      tag_5\n      jumpi\n      dup1\n      0x9e07fd2c\n      eq\n      tag_6\n      jumpi\n    tag_2:\n      0x00\n      dup1\n      revert\n        /* \"contracts/Kalkulator-Contract.sol\":267:368  function kurang(uint256 num ) public {... */\n    tag_3:\n      tag_7\n      0x04\n      dup1\n      calldatasize\n      sub\n      dup2\n      add\n      swap1\n      tag_8\n      swap2\n      swap1\n      tag_9\n      jump\t// in\n    tag_8:\n      tag_10\n      jump\t// in\n    tag_7:\n      stop\n        /* \"contracts/Kalkulator-Contract.sol\":155:261  function tambah(uint256 num) public  {... */\n    tag_4:\n      tag_11\n      0x04\n      dup1\n      calldatasize\n      sub\n      dup2\n      add\n      swap1\n      tag_12\n      swap2\n      swap1\n      tag_9\n      jump\t// in\n    tag_12:\n      tag_13\n      jump\t// in\n    tag_11:\n      stop\n        /* \"contracts/Kalkulator-Contract.sol\":375:479  function kali(uint256 num) public  {... */\n    tag_5:\n      tag_14\n      0x04\n      dup1\n      calldatasize\n      sub\n      dup2\n      add\n      swap1\n      tag_15\n      swap2\n      swap1\n      tag_9\n      jump\t// in\n    tag_15:\n      tag_16\n      jump\t// in\n    tag_14:\n      stop\n        /* \"contracts/Kalkulator-Contract.sol\":485:597  function dapatkanHasil() public view returns(uint256){... */\n    tag_6:\n      tag_17\n      tag_18\n      jump\t// in\n    tag_17:\n      mload(0x40)\n      tag_19\n      swap2\n      swap1\n      tag_20\n      jump\t// in\n    tag_19:\n      mload(0x40)\n      dup1\n      swap2\n      sub\n      swap1\n      return\n        /* \"contracts/Kalkulator-Contract.sol\":267:368  function kurang(uint256 num ) public {... */\n    tag_10:\n        /* \"contracts/Kalkulator-Contract.sol\":323:326  num */\n      dup1\n        /* \"contracts/Kalkulator-Contract.sol\":314:319  hasil */\n      0x00\n      dup1\n        /* \"contracts/Kalkulator-Contract.sol\":314:326  hasil -= num */\n      dup3\n      dup3\n      sload\n      tag_22\n      swap2\n      swap1\n      tag_23\n      jump\t// in\n    tag_22:\n      swap3\n      pop\n      pop\n      dup2\n      swap1\n      sstore\n      pop\n        /* \"contracts/Kalkulator-Contract.sol\":267:368  function kurang(uint256 num ) public {... */\n      pop\n      jump\t// out\n        /* \"contracts/Kalkulator-Contract.sol\":155:261  function tambah(uint256 num) public  {... */\n    tag_13:\n        /* \"contracts/Kalkulator-Contract.sol\":211:214  num */\n      dup1\n        /* \"contracts/Kalkulator-Contract.sol\":202:207  hasil */\n      0x00\n      dup1\n        /* \"contracts/Kalkulator-Contract.sol\":202:214  hasil += num */\n      dup3\n      dup3\n      sload\n      tag_25\n      swap2\n      swap1\n      tag_26\n      jump\t// in\n    tag_25:\n      swap3\n      pop\n      pop\n      dup2\n      swap1\n      sstore\n      pop\n        /* \"contracts/Kalkulator-Contract.sol\":155:261  function tambah(uint256 num) public  {... */\n      pop\n      jump\t// out\n        /* \"contracts/Kalkulator-Contract.sol\":375:479  function kali(uint256 num) public  {... */\n    tag_16:\n        /* \"contracts/Kalkulator-Contract.sol\":429:432  num */\n      dup1\n        /* \"contracts/Kalkulator-Contract.sol\":420:425  hasil */\n      0x00\n      dup1\n        /* \"contracts/Kalkulator-Contract.sol\":420:432  hasil *= num */\n      dup3\n      dup3\n      sload\n      tag_28\n      swap2\n      swap1\n      tag_29\n      jump\t// in\n    tag_28:\n      swap3\n      pop\n      pop\n      dup2\n      swap1\n      sstore\n      pop\n        /* \"contracts/Kalkulator-Contract.sol\":375:479  function kali(uint256 num) public  {... */\n      pop\n      jump\t// out\n        /* \"contracts/Kalkulator-Contract.sol\":485:597  function dapatkanHasil() public view returns(uint256){... */\n    tag_18:\n        /* \"contracts/Kalkulator-Contract.sol\":530:537  uint256 */\n      0x00\n        /* \"contracts/Kalkulator-Contract.sol\":555:560  hasil */\n      dup1\n      sload\n        /* \"contracts/Kalkulator-Contract.sol\":548:560  return hasil */\n      swap1\n      pop\n        /* \"contracts/Kalkulator-Contract.sol\":485:597  function dapatkanHasil() public view returns(uint256){... */\n      swap1\n      jump\t// out\n        /* \"#utility.yul\":88:205   */\n    tag_32:\n        /* \"#utility.yul\":197:198   */\n      0x00\n        /* \"#utility.yul\":194:195   */\n      dup1\n        /* \"#utility.yul\":187:199   */\n      revert\n        /* \"#utility.yul\":334:411   */\n    tag_34:\n        /* \"#utility.yul\":371:378   */\n      0x00\n        /* \"#utility.yul\":400:405   */\n      dup2\n        /* \"#utility.yul\":389:405   */\n      swap1\n      pop\n        /* \"#utility.yul\":334:411   */\n      swap2\n      swap1\n      pop\n      jump\t// out\n        /* \"#utility.yul\":417:539   */\n    tag_35:\n        /* \"#utility.yul\":490:514   */\n      tag_45\n        /* \"#utility.yul\":508:513   */\n      dup2\n        /* \"#utility.yul\":490:514   */\n      tag_34\n      jump\t// in\n    tag_45:\n        /* \"#utility.yul\":483:488   */\n      dup2\n        /* \"#utility.yul\":480:515   */\n      eq\n        /* \"#utility.yul\":470:533   */\n      tag_46\n      jumpi\n        /* \"#utility.yul\":529:530   */\n      0x00\n        /* \"#utility.yul\":526:527   */\n      dup1\n        /* \"#utility.yul\":519:531   */\n      revert\n        /* \"#utility.yul\":470:533   */\n    tag_46:\n        /* \"#utility.yul\":417:539   */\n      pop\n      jump\t// out\n        /* \"#utility.yul\":545:684   */\n    tag_36:\n        /* \"#utility.yul\":591:596   */\n      0x00\n        /* \"#utility.yul\":629:635   */\n      dup2\n        /* \"#utility.yul\":616:636   */\n      calldataload\n        /* \"#utility.yul\":607:636   */\n      swap1\n      pop\n        /* \"#utility.yul\":645:678   */\n      tag_48\n        /* \"#utility.yul\":672:677   */\n      dup2\n        /* \"#utility.yul\":645:678   */\n      tag_35\n      jump\t// in\n    tag_48:\n        /* \"#utility.yul\":545:684   */\n      swap3\n      swap2\n      pop\n      pop\n      jump\t// out\n        /* \"#utility.yul\":690:1019   */\n    tag_9:\n        /* \"#utility.yul\":749:755   */\n      0x00\n        /* \"#utility.yul\":798:800   */\n      0x20\n        /* \"#utility.yul\":786:795   */\n      dup3\n        /* \"#utility.yul\":777:784   */\n      dup5\n        /* \"#utility.yul\":773:796   */\n      sub\n        /* \"#utility.yul\":769:801   */\n      slt\n        /* \"#utility.yul\":766:885   */\n      iszero\n      tag_50\n      jumpi\n        /* \"#utility.yul\":804:883   */\n      tag_51\n      tag_32\n      jump\t// in\n    tag_51:\n        /* \"#utility.yul\":766:885   */\n    tag_50:\n        /* \"#utility.yul\":924:925   */\n      0x00\n        /* \"#utility.yul\":949:1002   */\n      tag_52\n        /* \"#utility.yul\":994:1001   */\n      dup5\n        /* \"#utility.yul\":985:991   */\n      dup3\n        /* \"#utility.yul\":974:983   */\n      dup6\n        /* \"#utility.yul\":970:992   */\n      add\n        /* \"#utility.yul\":949:1002   */\n      tag_36\n      jump\t// in\n    tag_52:\n        /* \"#utility.yul\":939:1002   */\n      swap2\n      pop\n        /* \"#utility.yul\":895:1012   */\n      pop\n        /* \"#utility.yul\":690:1019   */\n      swap3\n      swap2\n      pop\n      pop\n      jump\t// out\n        /* \"#utility.yul\":1025:1143   */\n    tag_37:\n        /* \"#utility.yul\":1112:1136   */\n      tag_54\n        /* \"#utility.yul\":1130:1135   */\n      dup2\n        /* \"#utility.yul\":1112:1136   */\n      tag_34\n      jump\t// in\n    tag_54:\n        /* \"#utility.yul\":1107:1110   */\n      dup3\n        /* \"#utility.yul\":1100:1137   */\n      mstore\n        /* \"#utility.yul\":1025:1143   */\n      pop\n      pop\n      jump\t// out\n        /* \"#utility.yul\":1149:1371   */\n    tag_20:\n        /* \"#utility.yul\":1242:1246   */\n      0x00\n        /* \"#utility.yul\":1280:1282   */\n      0x20\n        /* \"#utility.yul\":1269:1278   */\n      dup3\n        /* \"#utility.yul\":1265:1283   */\n      add\n        /* \"#utility.yul\":1257:1283   */\n      swap1\n      pop\n        /* \"#utility.yul\":1293:1364   */\n      tag_56\n        /* \"#utility.yul\":1361:1362   */\n      0x00\n        /* \"#utility.yul\":1350:1359   */\n      dup4\n        /* \"#utility.yul\":1346:1363   */\n      add\n        /* \"#utility.yul\":1337:1343   */\n      dup5\n        /* \"#utility.yul\":1293:1364   */\n      tag_37\n      jump\t// in\n    tag_56:\n        /* \"#utility.yul\":1149:1371   */\n      swap3\n      swap2\n      pop\n      pop\n      jump\t// out\n        /* \"#utility.yul\":1377:1557   */\n    tag_38:\n        /* \"#utility.yul\":1425:1502   */\n      0x4e487b7100000000000000000000000000000000000000000000000000000000\n        /* \"#utility.yul\":1422:1423   */\n      0x00\n        /* \"#utility.yul\":1415:1503   */\n      mstore\n        /* \"#utility.yul\":1522:1526   */\n      0x11\n        /* \"#utility.yul\":1519:1520   */\n      0x04\n        /* \"#utility.yul\":1512:1527   */\n      mstore\n        /* \"#utility.yul\":1546:1550   */\n      0x24\n        /* \"#utility.yul\":1543:1544   */\n      0x00\n        /* \"#utility.yul\":1536:1551   */\n      revert\n        /* \"#utility.yul\":1563:1757   */\n    tag_23:\n        /* \"#utility.yul\":1603:1607   */\n      0x00\n        /* \"#utility.yul\":1623:1643   */\n      tag_59\n        /* \"#utility.yul\":1641:1642   */\n      dup3\n        /* \"#utility.yul\":1623:1643   */\n      tag_34\n      jump\t// in\n    tag_59:\n        /* \"#utility.yul\":1618:1643   */\n      swap2\n      pop\n        /* \"#utility.yul\":1657:1677   */\n      tag_60\n        /* \"#utility.yul\":1675:1676   */\n      dup4\n        /* \"#utility.yul\":1657:1677   */\n      tag_34\n      jump\t// in\n    tag_60:\n        /* \"#utility.yul\":1652:1677   */\n      swap3\n      pop\n        /* \"#utility.yul\":1701:1702   */\n      dup3\n        /* \"#utility.yul\":1698:1699   */\n      dup3\n        /* \"#utility.yul\":1694:1703   */\n      sub\n        /* \"#utility.yul\":1686:1703   */\n      swap1\n      pop\n        /* \"#utility.yul\":1725:1726   */\n      dup2\n        /* \"#utility.yul\":1719:1723   */\n      dup2\n        /* \"#utility.yul\":1716:1727   */\n      gt\n        /* \"#utility.yul\":1713:1750   */\n      iszero\n      tag_61\n      jumpi\n        /* \"#utility.yul\":1730:1748   */\n      tag_62\n      tag_38\n      jump\t// in\n    tag_62:\n        /* \"#utility.yul\":1713:1750   */\n    tag_61:\n        /* \"#utility.yul\":1563:1757   */\n      swap3\n      swap2\n      pop\n      pop\n      jump\t// out\n        /* \"#utility.yul\":1763:1954   */\n    tag_26:\n        /* \"#utility.yul\":1803:1806   */\n      0x00\n        /* \"#utility.yul\":1822:1842   */\n      tag_64\n        /* \"#utility.yul\":1840:1841   */\n      dup3\n        /* \"#utility.yul\":1822:1842   */\n      tag_34\n      jump\t// in\n    tag_64:\n        /* \"#utility.yul\":1817:1842   */\n      swap2\n      pop\n        /* \"#utility.yul\":1856:1876   */\n      tag_65\n        /* \"#utility.yul\":1874:1875   */\n      dup4\n        /* \"#utility.yul\":1856:1876   */\n      tag_34\n      jump\t// in\n    tag_65:\n        /* \"#utility.yul\":1851:1876   */\n      swap3\n      pop\n        /* \"#utility.yul\":1899:1900   */\n      dup3\n        /* \"#utility.yul\":1896:1897   */\n      dup3\n        /* \"#utility.yul\":1892:1901   */\n      add\n        /* \"#utility.yul\":1885:1901   */\n      swap1\n      pop\n        /* \"#utility.yul\":1920:1923   */\n      dup1\n        /* \"#utility.yul\":1917:1918   */\n      dup3\n        /* \"#utility.yul\":1914:1924   */\n      gt\n        /* \"#utility.yul\":1911:1947   */\n      iszero\n      tag_66\n      jumpi\n        /* \"#utility.yul\":1927:1945   */\n      tag_67\n      tag_38\n      jump\t// in\n    tag_67:\n        /* \"#utility.yul\":1911:1947   */\n    tag_66:\n        /* \"#utility.yul\":1763:1954   */\n      swap3\n      swap2\n      pop\n      pop\n      jump\t// out\n        /* \"#utility.yul\":1960:2370   */\n    tag_29:\n        /* \"#utility.yul\":2000:2007   */\n      0x00\n        /* \"#utility.yul\":2023:2043   */\n      tag_69\n        /* \"#utility.yul\":2041:2042   */\n      dup3\n        /* \"#utility.yul\":2023:2043   */\n      tag_34\n      jump\t// in\n    tag_69:\n        /* \"#utility.yul\":2018:2043   */\n      swap2\n      pop\n        /* \"#utility.yul\":2057:2077   */\n      tag_70\n        /* \"#utility.yul\":2075:2076   */\n      dup4\n        /* \"#utility.yul\":2057:2077   */\n      tag_34\n      jump\t// in\n    tag_70:\n        /* \"#utility.yul\":2052:2077   */\n      swap3\n      pop\n        /* \"#utility.yul\":2112:2113   */\n      dup3\n        /* \"#utility.yul\":2109:2110   */\n      dup3\n        /* \"#utility.yul\":2105:2114   */\n      mul\n        /* \"#utility.yul\":2134:2164   */\n      tag_71\n        /* \"#utility.yul\":2152:2163   */\n      dup2\n        /* \"#utility.yul\":2134:2164   */\n      tag_34\n      jump\t// in\n    tag_71:\n        /* \"#utility.yul\":2123:2164   */\n      swap2\n      pop\n        /* \"#utility.yul\":2313:2314   */\n      dup3\n        /* \"#utility.yul\":2304:2311   */\n      dup3\n        /* \"#utility.yul\":2300:2315   */\n      div\n        /* \"#utility.yul\":2297:2298   */\n      dup5\n        /* \"#utility.yul\":2294:2316   */\n      eq\n        /* \"#utility.yul\":2274:2275   */\n      dup4\n        /* \"#utility.yul\":2267:2276   */\n      iszero\n        /* \"#utility.yul\":2247:2330   */\n      or\n        /* \"#utility.yul\":2224:2363   */\n      tag_72\n      jumpi\n        /* \"#utility.yul\":2343:2361   */\n      tag_73\n      tag_38\n      jump\t// in\n    tag_73:\n        /* \"#utility.yul\":2224:2363   */\n    tag_72:\n        /* \"#utility.yul\":2008:2370   */\n      pop\n        /* \"#utility.yul\":1960:2370   */\n      swap3\n      swap2\n      pop\n      pop\n      jump\t// out\n\n    auxdata: 0xa2646970667358221220d900736c0599fbe6f2820a018cc24db7d652ec0f12258c963004490e53d4b75c64736f6c63430008120033\n}\n",
				"bytecode": {
					"linkReferences": {},
					"object": "60806040526000805534801561001457600080fd5b506102be806100246000396000f3fe608060405234801561001057600080fd5b506004361061004c5760003560e01c8063588d8c571461005157806372149a0c1461006d578063918b176b146100895780639e07fd2c146100a5575b600080fd5b61006b60048036038101906100669190610158565b6100c3565b005b61008760048036038101906100829190610158565b6100de565b005b6100a3600480360381019061009e9190610158565b6100f9565b005b6100ad610114565b6040516100ba9190610194565b60405180910390f35b806000808282546100d491906101de565b9250508190555050565b806000808282546100ef9190610212565b9250508190555050565b8060008082825461010a9190610246565b9250508190555050565b60008054905090565b600080fd5b6000819050919050565b61013581610122565b811461014057600080fd5b50565b6000813590506101528161012c565b92915050565b60006020828403121561016e5761016d61011d565b5b600061017c84828501610143565b91505092915050565b61018e81610122565b82525050565b60006020820190506101a96000830184610185565b92915050565b7f4e487b7100000000000000000000000000000000000000000000000000000000600052601160045260246000fd5b60006101e982610122565b91506101f483610122565b925082820390508181111561020c5761020b6101af565b5b92915050565b600061021d82610122565b915061022883610122565b92508282019050808211156102405761023f6101af565b5b92915050565b600061025182610122565b915061025c83610122565b925082820261026a81610122565b91508282048414831517610281576102806101af565b5b509291505056fea2646970667358221220d900736c0599fbe6f2820a018cc24db7d652ec0f12258c963004490e53d4b75c64736f6c63430008120033",
					"opcodes": "PUSH1 0x80 PUSH1 0x40 MSTORE PUSH1 0x0 DUP1 SSTORE CALLVALUE DUP1 ISZERO PUSH2 0x14 JUMPI PUSH1 0x0 DUP1 REVERT JUMPDEST POP PUSH2 0x2BE DUP1 PUSH2 0x24 PUSH1 0x0 CODECOPY PUSH1 0x0 RETURN INVALID PUSH1 0x80 PUSH1 0x40 MSTORE CALLVALUE DUP1 ISZERO PUSH2 0x10 JUMPI PUSH1 0x0 DUP1 REVERT JUMPDEST POP PUSH1 0x4 CALLDATASIZE LT PUSH2 0x4C JUMPI PUSH1 0x0 CALLDATALOAD PUSH1 0xE0 SHR DUP1 PUSH4 0x588D8C57 EQ PUSH2 0x51 JUMPI DUP1 PUSH4 0x72149A0C EQ PUSH2 0x6D JUMPI DUP1 PUSH4 0x918B176B EQ PUSH2 0x89 JUMPI DUP1 PUSH4 0x9E07FD2C EQ PUSH2 0xA5 JUMPI JUMPDEST PUSH1 0x0 DUP1 REVERT JUMPDEST PUSH2 0x6B PUSH1 0x4 DUP1 CALLDATASIZE SUB DUP2 ADD SWAP1 PUSH2 0x66 SWAP2 SWAP1 PUSH2 0x158 JUMP JUMPDEST PUSH2 0xC3 JUMP JUMPDEST STOP JUMPDEST PUSH2 0x87 PUSH1 0x4 DUP1 CALLDATASIZE SUB DUP2 ADD SWAP1 PUSH2 0x82 SWAP2 SWAP1 PUSH2 0x158 JUMP JUMPDEST PUSH2 0xDE JUMP JUMPDEST STOP JUMPDEST PUSH2 0xA3 PUSH1 0x4 DUP1 CALLDATASIZE SUB DUP2 ADD SWAP1 PUSH2 0x9E SWAP2 SWAP1 PUSH2 0x158 JUMP JUMPDEST PUSH2 0xF9 JUMP JUMPDEST STOP JUMPDEST PUSH2 0xAD PUSH2 0x114 JUMP JUMPDEST PUSH1 0x40 MLOAD PUSH2 0xBA SWAP2 SWAP1 PUSH2 0x194 JUMP JUMPDEST PUSH1 0x40 MLOAD DUP1 SWAP2 SUB SWAP1 RETURN JUMPDEST DUP1 PUSH1 0x0 DUP1 DUP3 DUP3 SLOAD PUSH2 0xD4 SWAP2 SWAP1 PUSH2 0x1DE JUMP JUMPDEST SWAP3 POP POP DUP2 SWAP1 SSTORE POP POP JUMP JUMPDEST DUP1 PUSH1 0x0 DUP1 DUP3 DUP3 SLOAD PUSH2 0xEF SWAP2 SWAP1 PUSH2 0x212 JUMP JUMPDEST SWAP3 POP POP DUP2 SWAP1 SSTORE POP POP JUMP JUMPDEST DUP1 PUSH1 0x0 DUP1 DUP3 DUP3 SLOAD PUSH2 0x10A SWAP2 SWAP1 PUSH2 0x246 JUMP JUMPDEST SWAP3 POP POP DUP2 SWAP1 SSTORE POP POP JUMP JUMPDEST PUSH1 0x0 DUP1 SLOAD SWAP1 POP SWAP1 JUMP JUMPDEST PUSH1 0x0 DUP1 REVERT JUMPDEST PUSH1 0x0 DUP2 SWAP1 POP SWAP2 SWAP1 POP JUMP JUMPDEST PUSH2 0x135 DUP2 PUSH2 0x122 JUMP JUMPDEST DUP2 EQ PUSH2 0x140 JUMPI PUSH1 0x0 DUP1 REVERT JUMPDEST POP JUMP JUMPDEST PUSH1 0x0 DUP2 CALLDATALOAD SWAP1 POP PUSH2 0x152 DUP2 PUSH2 0x12C JUMP JUMPDEST SWAP3 SWAP2 POP POP JUMP JUMPDEST PUSH1 0x0 PUSH1 0x20 DUP3 DUP5 SUB SLT ISZERO PUSH2 0x16E JUMPI PUSH2 0x16D PUSH2 0x11D JUMP JUMPDEST JUMPDEST PUSH1 0x0 PUSH2 0x17C DUP5 DUP3 DUP6 ADD PUSH2 0x143 JUMP JUMPDEST SWAP2 POP POP SWAP3 SWAP2 POP POP JUMP JUMPDEST PUSH2 0x18E DUP2 PUSH2 0x122 JUMP JUMPDEST DUP3 MSTORE POP POP JUMP JUMPDEST PUSH1 0x0 PUSH1 0x20 DUP3 ADD SWAP1 POP PUSH2 0x1A9 PUSH1 0x0 DUP4 ADD DUP5 PUSH2 0x185 JUMP JUMPDEST SWAP3 SWAP2 POP POP JUMP JUMPDEST PUSH32 0x4E487B7100000000000000000000000000000000000000000000000000000000 PUSH1 0x0 MSTORE PUSH1 0x11 PUSH1 0x4 MSTORE PUSH1 0x24 PUSH1 0x0 REVERT JUMPDEST PUSH1 0x0 PUSH2 0x1E9 DUP3 PUSH2 0x122 JUMP JUMPDEST SWAP2 POP PUSH2 0x1F4 DUP4 PUSH2 0x122 JUMP JUMPDEST SWAP3 POP DUP3 DUP3 SUB SWAP1 POP DUP2 DUP2 GT ISZERO PUSH2 0x20C JUMPI PUSH2 0x20B PUSH2 0x1AF JUMP JUMPDEST JUMPDEST SWAP3 SWAP2 POP POP JUMP JUMPDEST PUSH1 0x0 PUSH2 0x21D DUP3 PUSH2 0x122 JUMP JUMPDEST SWAP2 POP PUSH2 0x228 DUP4 PUSH2 0x122 JUMP JUMPDEST SWAP3 POP DUP3 DUP3 ADD SWAP1 POP DUP1 DUP3 GT ISZERO PUSH2 0x240 JUMPI PUSH2 0x23F PUSH2 0x1AF JUMP JUMPDEST JUMPDEST SWAP3 SWAP2 POP POP JUMP JUMPDEST PUSH1 0x0 PUSH2 0x251 DUP3 PUSH2 0x122 JUMP JUMPDEST SWAP2 POP PUSH2 0x25C DUP4 PUSH2 0x122 JUMP JUMPDEST SWAP3 POP DUP3 DUP3 MUL PUSH2 0x26A DUP2 PUSH2 0x122 JUMP JUMPDEST SWAP2 POP DUP3 DUP3 DIV DUP5 EQ DUP4 ISZERO OR PUSH2 0x281 JUMPI PUSH2 0x280 PUSH2 0x1AF JUMP JUMPDEST JUMPDEST POP SWAP3 SWAP2 POP POP JUMP INVALID LOG2 PUSH5 0x6970667358 0x22 SLT KECCAK256 0xD9 STOP PUSH20 0x6C0599FBE6F2820A018CC24DB7D652EC0F12258C SWAP7 ADDRESS DIV 0x49 0xE MSTORE8 0xD4 0xB7 0x5C PUSH5 0x736F6C6343 STOP ADDMOD SLT STOP CALLER "
				},
				"gasEstimates": {
					"creation": {
						"codeDepositCost": "140400",
						"executionCost": "5189",
						"totalCost": "145589"
					},
					"external": {
						"dapatkanHasil()": "2481",
						"kali(uint256)": "infinite",
						"kurang(uint256)": "infinite",
						"tambah(uint256)": "infinite"
					}
				},
				"methodIdentifiers": {
					"dapatkanHasil()": "9e07fd2c",
					"kali(uint256)": "918b176b",
					"kurang(uint256)": "588d8c57",
					"tambah(uint256)": "72149a0c"
				}
			},
			"storageLayout": {
				"storage": [
					{
						"astId": 4,
						"contract": "contracts/Kalkulator-Contract.sol:Kalkulator",
						"label": "hasil",
						"offset": 0,
						"slot": "0",
						"type": "t_uint256"
					}
				],
				"types": {
					"t_uint256": {
						"encoding": "inplace",
						"label": "uint256",
						"numberOfBytes": "32"
					}
				}
			},
			"userdoc": {
				"kind": "user",
				"methods": {},
				"version": 1
			}
		}
	}
}