{
	"contracts/ArrayReplaceFromEnd.sol": {
		"ArrayReplaceFromEnd": {
			"abi": [
				{
					"inputs": [
						{
							"internalType": "uint256",
							"name": "",
							"type": "uint256"
						}
					],
					"name": "arr",
					"outputs": [
						{
							"internalType": "uint256",
							"name": "",
							"type": "uint256"
						}
					],
					"stateMutability": "view",
					"type": "function"
				},
				{
					"inputs": [
						{
							"internalType": "uint256",
							"name": "index",
							"type": "uint256"
						}
					],
					"name": "remove",
					"outputs": [],
					"stateMutability": "nonpayable",
					"type": "function"
				},
				{
					"inputs": [],
					"name": "test",
					"outputs": [],
					"stateMutability": "nonpayable",
					"type": "function"
				}
			],
			"devdoc": {
				"kind": "dev",
				"methods": {},
				"version": 1
			},
			"evm": {
				"assembly": "    /* \"contracts/ArrayReplaceFromEnd.sol\":57:1305  contract ArrayReplaceFromEnd {... */\n  mstore(0x40, 0x80)\n  callvalue\n  dup1\n  iszero\n  tag_1\n  jumpi\n  0x00\n  dup1\n  revert\ntag_1:\n  pop\n  dataSize(sub_0)\n  dup1\n  dataOffset(sub_0)\n  0x00\n  codecopy\n  0x00\n  return\nstop\n\nsub_0: assembly {\n        /* \"contracts/ArrayReplaceFromEnd.sol\":57:1305  contract ArrayReplaceFromEnd {... */\n      mstore(0x40, 0x80)\n      callvalue\n      dup1\n      iszero\n      tag_1\n      jumpi\n      0x00\n      dup1\n      revert\n    tag_1:\n      pop\n      jumpi(tag_2, lt(calldatasize, 0x04))\n      shr(0xe0, calldataload(0x00))\n      dup1\n      0x4cc82215\n      eq\n      tag_3\n      jumpi\n      dup1\n      0x71e5ee5f\n      eq\n      tag_4\n      jumpi\n      dup1\n      0xf8a8fd6d\n      eq\n      tag_5\n      jumpi\n    tag_2:\n      0x00\n      dup1\n      revert\n        /* \"contracts/ArrayReplaceFromEnd.sol\":308:516  function remove(uint index) public {... */\n    tag_3:\n      tag_6\n      0x04\n      dup1\n      calldatasize\n      sub\n      dup2\n      add\n      swap1\n      tag_7\n      swap2\n      swap1\n      tag_8\n      jump\t// in\n    tag_7:\n      tag_9\n      jump\t// in\n    tag_6:\n      stop\n        /* \"contracts/ArrayReplaceFromEnd.sol\":92:109  uint[] public arr */\n    tag_4:\n      tag_10\n      0x04\n      dup1\n      calldatasize\n      sub\n      dup2\n      add\n      swap1\n      tag_11\n      swap2\n      swap1\n      tag_8\n      jump\t// in\n    tag_11:\n      tag_12\n      jump\t// in\n    tag_10:\n      mload(0x40)\n      tag_13\n      swap2\n      swap1\n      tag_14\n      jump\t// in\n    tag_13:\n      mload(0x40)\n      dup1\n      swap2\n      sub\n      swap1\n      return\n        /* \"contracts/ArrayReplaceFromEnd.sol\":562:1303  function test() public {... */\n    tag_5:\n      tag_15\n      tag_16\n      jump\t// in\n    tag_15:\n      stop\n        /* \"contracts/ArrayReplaceFromEnd.sol\":308:516  function remove(uint index) public {... */\n    tag_9:\n        /* \"contracts/ArrayReplaceFromEnd.sol\":434:437  arr */\n      0x00\n        /* \"contracts/ArrayReplaceFromEnd.sol\":451:452  1 */\n      0x01\n        /* \"contracts/ArrayReplaceFromEnd.sol\":438:441  arr */\n      0x00\n        /* \"contracts/ArrayReplaceFromEnd.sol\":438:448  arr.length */\n      dup1\n      sload\n      swap1\n      pop\n        /* \"contracts/ArrayReplaceFromEnd.sol\":438:452  arr.length - 1 */\n      tag_18\n      swap2\n      swap1\n      tag_19\n      jump\t// in\n    tag_18:\n        /* \"contracts/ArrayReplaceFromEnd.sol\":434:453  arr[arr.length - 1] */\n      dup2\n      sload\n      dup2\n      lt\n      tag_20\n      jumpi\n      tag_21\n      tag_22\n      jump\t// in\n    tag_21:\n    tag_20:\n      swap1\n      0x00\n      mstore\n      keccak256(0x00, 0x20)\n      add\n      sload\n        /* \"contracts/ArrayReplaceFromEnd.sol\":421:424  arr */\n      0x00\n        /* \"contracts/ArrayReplaceFromEnd.sol\":425:430  index */\n      dup3\n        /* \"contracts/ArrayReplaceFromEnd.sol\":421:431  arr[index] */\n      dup2\n      sload\n      dup2\n      lt\n      tag_24\n      jumpi\n      tag_25\n      tag_22\n      jump\t// in\n    tag_25:\n    tag_24:\n      swap1\n      0x00\n      mstore\n      keccak256(0x00, 0x20)\n      add\n        /* \"contracts/ArrayReplaceFromEnd.sol\":421:453  arr[index] = arr[arr.length - 1] */\n      dup2\n      swap1\n      sstore\n      pop\n        /* \"contracts/ArrayReplaceFromEnd.sol\":500:503  arr */\n      0x00\n        /* \"contracts/ArrayReplaceFromEnd.sol\":500:509  arr.pop() */\n      dup1\n      sload\n      dup1\n      tag_27\n      jumpi\n      tag_28\n      tag_29\n      jump\t// in\n    tag_28:\n    tag_27:\n      0x01\n      swap1\n      sub\n      dup2\n      dup2\n      swap1\n      0x00\n      mstore\n      keccak256(0x00, 0x20)\n      add\n      0x00\n      swap1\n      sstore\n      swap1\n      sstore\n        /* \"contracts/ArrayReplaceFromEnd.sol\":308:516  function remove(uint index) public {... */\n      pop\n      jump\t// out\n        /* \"contracts/ArrayReplaceFromEnd.sol\":92:109  uint[] public arr */\n    tag_12:\n      0x00\n      dup2\n      dup2\n      sload\n      dup2\n      lt\n      tag_31\n      jumpi\n      0x00\n      dup1\n      revert\n    tag_31:\n      swap1\n      0x00\n      mstore\n      keccak256(0x00, 0x20)\n      add\n      0x00\n      swap2\n      pop\n      swap1\n      pop\n      sload\n      dup2\n      jump\t// out\n        /* \"contracts/ArrayReplaceFromEnd.sol\":562:1303  function test() public {... */\n    tag_16:\n        /* \"contracts/ArrayReplaceFromEnd.sol\":595:613  arr = [1, 2, 3, 4] */\n      mload(0x40)\n      dup1\n      0x80\n      add\n      0x40\n      mstore\n      dup1\n        /* \"contracts/ArrayReplaceFromEnd.sol\":602:603  1 */\n      0x01\n        /* \"contracts/ArrayReplaceFromEnd.sol\":595:613  arr = [1, 2, 3, 4] */\n      0xff\n      and\n      dup2\n      mstore\n      0x20\n      add\n        /* \"contracts/ArrayReplaceFromEnd.sol\":605:606  2 */\n      0x02\n        /* \"contracts/ArrayReplaceFromEnd.sol\":595:613  arr = [1, 2, 3, 4] */\n      0xff\n      and\n      dup2\n      mstore\n      0x20\n      add\n        /* \"contracts/ArrayReplaceFromEnd.sol\":608:609  3 */\n      0x03\n        /* \"contracts/ArrayReplaceFromEnd.sol\":595:613  arr = [1, 2, 3, 4] */\n      0xff\n      and\n      dup2\n      mstore\n      0x20\n      add\n        /* \"contracts/ArrayReplaceFromEnd.sol\":611:612  4 */\n      0x04\n        /* \"contracts/ArrayReplaceFromEnd.sol\":595:613  arr = [1, 2, 3, 4] */\n      0xff\n      and\n      dup2\n      mstore\n      pop\n        /* \"contracts/ArrayReplaceFromEnd.sol\":595:598  arr */\n      0x00\n        /* \"contracts/ArrayReplaceFromEnd.sol\":595:613  arr = [1, 2, 3, 4] */\n      swap1\n      0x04\n      tag_34\n      swap3\n      swap2\n      swap1\n      tag_35\n      jump\t// in\n    tag_34:\n      pop\n        /* \"contracts/ArrayReplaceFromEnd.sol\":673:682  remove(1) */\n      tag_36\n        /* \"contracts/ArrayReplaceFromEnd.sol\":680:681  1 */\n      0x01\n        /* \"contracts/ArrayReplaceFromEnd.sol\":673:679  remove */\n      tag_9\n        /* \"contracts/ArrayReplaceFromEnd.sol\":673:682  remove(1) */\n      jump\t// in\n    tag_36:\n        /* \"contracts/ArrayReplaceFromEnd.sol\":753:754  3 */\n      0x03\n        /* \"contracts/ArrayReplaceFromEnd.sol\":739:742  arr */\n      0x00\n        /* \"contracts/ArrayReplaceFromEnd.sol\":739:749  arr.length */\n      dup1\n      sload\n      swap1\n      pop\n        /* \"contracts/ArrayReplaceFromEnd.sol\":739:754  arr.length == 3 */\n      eq\n        /* \"contracts/ArrayReplaceFromEnd.sol\":732:755  assert(arr.length == 3) */\n      tag_37\n      jumpi\n      tag_38\n      tag_39\n      jump\t// in\n    tag_38:\n    tag_37:\n        /* \"contracts/ArrayReplaceFromEnd.sol\":817:818  1 */\n      0x01\n        /* \"contracts/ArrayReplaceFromEnd.sol\":807:810  arr */\n      0x00\n        /* \"contracts/ArrayReplaceFromEnd.sol\":811:812  0 */\n      dup1\n        /* \"contracts/ArrayReplaceFromEnd.sol\":807:813  arr[0] */\n      dup2\n      sload\n      dup2\n      lt\n      tag_40\n      jumpi\n      tag_41\n      tag_22\n      jump\t// in\n    tag_41:\n    tag_40:\n      swap1\n      0x00\n      mstore\n      keccak256(0x00, 0x20)\n      add\n      sload\n        /* \"contracts/ArrayReplaceFromEnd.sol\":807:818  arr[0] == 1 */\n      eq\n        /* \"contracts/ArrayReplaceFromEnd.sol\":800:819  assert(arr[0] == 1) */\n      tag_43\n      jumpi\n      tag_44\n      tag_39\n      jump\t// in\n    tag_44:\n    tag_43:\n        /* \"contracts/ArrayReplaceFromEnd.sol\":879:880  4 */\n      0x04\n        /* \"contracts/ArrayReplaceFromEnd.sol\":869:872  arr */\n      0x00\n        /* \"contracts/ArrayReplaceFromEnd.sol\":873:874  1 */\n      0x01\n        /* \"contracts/ArrayReplaceFromEnd.sol\":869:875  arr[1] */\n      dup2\n      sload\n      dup2\n      lt\n      tag_45\n      jumpi\n      tag_46\n      tag_22\n      jump\t// in\n    tag_46:\n    tag_45:\n      swap1\n      0x00\n      mstore\n      keccak256(0x00, 0x20)\n      add\n      sload\n        /* \"contracts/ArrayReplaceFromEnd.sol\":869:880  arr[1] == 4 */\n      eq\n        /* \"contracts/ArrayReplaceFromEnd.sol\":862:881  assert(arr[1] == 4) */\n      tag_48\n      jumpi\n      tag_49\n      tag_39\n      jump\t// in\n    tag_49:\n    tag_48:\n        /* \"contracts/ArrayReplaceFromEnd.sol\":960:961  3 */\n      0x03\n        /* \"contracts/ArrayReplaceFromEnd.sol\":950:953  arr */\n      0x00\n        /* \"contracts/ArrayReplaceFromEnd.sol\":954:955  2 */\n      0x02\n        /* \"contracts/ArrayReplaceFromEnd.sol\":950:956  arr[2] */\n      dup2\n      sload\n      dup2\n      lt\n      tag_50\n      jumpi\n      tag_51\n      tag_22\n      jump\t// in\n    tag_51:\n    tag_50:\n      swap1\n      0x00\n      mstore\n      keccak256(0x00, 0x20)\n      add\n      sload\n        /* \"contracts/ArrayReplaceFromEnd.sol\":950:961  arr[2] == 3 */\n      eq\n        /* \"contracts/ArrayReplaceFromEnd.sol\":943:962  assert(arr[2] == 3) */\n      tag_53\n      jumpi\n      tag_54\n      tag_39\n      jump\t// in\n    tag_54:\n    tag_53:\n        /* \"contracts/ArrayReplaceFromEnd.sol\":1056:1065  remove(2) */\n      tag_55\n        /* \"contracts/ArrayReplaceFromEnd.sol\":1063:1064  2 */\n      0x02\n        /* \"contracts/ArrayReplaceFromEnd.sol\":1056:1062  remove */\n      tag_9\n        /* \"contracts/ArrayReplaceFromEnd.sol\":1056:1065  remove(2) */\n      jump\t// in\n    tag_55:\n        /* \"contracts/ArrayReplaceFromEnd.sol\":1135:1136  2 */\n      0x02\n        /* \"contracts/ArrayReplaceFromEnd.sol\":1121:1124  arr */\n      0x00\n        /* \"contracts/ArrayReplaceFromEnd.sol\":1121:1131  arr.length */\n      dup1\n      sload\n      swap1\n      pop\n        /* \"contracts/ArrayReplaceFromEnd.sol\":1121:1136  arr.length == 2 */\n      eq\n        /* \"contracts/ArrayReplaceFromEnd.sol\":1114:1137  assert(arr.length == 2) */\n      tag_56\n      jumpi\n      tag_57\n      tag_39\n      jump\t// in\n    tag_57:\n    tag_56:\n        /* \"contracts/ArrayReplaceFromEnd.sol\":1199:1200  1 */\n      0x01\n        /* \"contracts/ArrayReplaceFromEnd.sol\":1189:1192  arr */\n      0x00\n        /* \"contracts/ArrayReplaceFromEnd.sol\":1193:1194  0 */\n      dup1\n        /* \"contracts/ArrayReplaceFromEnd.sol\":1189:1195  arr[0] */\n      dup2\n      sload\n      dup2\n      lt\n      tag_58\n      jumpi\n      tag_59\n      tag_22\n      jump\t// in\n    tag_59:\n    tag_58:\n      swap1\n      0x00\n      mstore\n      keccak256(0x00, 0x20)\n      add\n      sload\n        /* \"contracts/ArrayReplaceFromEnd.sol\":1189:1200  arr[0] == 1 */\n      eq\n        /* \"contracts/ArrayReplaceFromEnd.sol\":1182:1201  assert(arr[0] == 1) */\n      tag_61\n      jumpi\n      tag_62\n      tag_39\n      jump\t// in\n    tag_62:\n    tag_61:\n        /* \"contracts/ArrayReplaceFromEnd.sol\":1261:1262  4 */\n      0x04\n        /* \"contracts/ArrayReplaceFromEnd.sol\":1251:1254  arr */\n      0x00\n        /* \"contracts/ArrayReplaceFromEnd.sol\":1255:1256  1 */\n      0x01\n        /* \"contracts/ArrayReplaceFromEnd.sol\":1251:1257  arr[1] */\n      dup2\n      sload\n      dup2\n      lt\n      tag_63\n      jumpi\n      tag_64\n      tag_22\n      jump\t// in\n    tag_64:\n    tag_63:\n      swap1\n      0x00\n      mstore\n      keccak256(0x00, 0x20)\n      add\n      sload\n        /* \"contracts/ArrayReplaceFromEnd.sol\":1251:1262  arr[1] == 4 */\n      eq\n        /* \"contracts/ArrayReplaceFromEnd.sol\":1244:1263  assert(arr[1] == 4) */\n      tag_66\n      jumpi\n      tag_67\n      tag_39\n      jump\t// in\n    tag_67:\n    tag_66:\n        /* \"contracts/ArrayReplaceFromEnd.sol\":562:1303  function test() public {... */\n      jump\t// out\n    tag_35:\n      dup3\n      dup1\n      sload\n      dup3\n      dup3\n      sstore\n      swap1\n      0x00\n      mstore\n      keccak256(0x00, 0x20)\n      swap1\n      dup2\n      add\n      swap3\n      dup3\n      iszero\n      tag_68\n      jumpi\n      swap2\n      0x20\n      mul\n      dup3\n      add\n    tag_69:\n      dup3\n      dup2\n      gt\n      iszero\n      tag_70\n      jumpi\n      dup3\n      mload\n      dup3\n      swap1\n      0xff\n      and\n      swap1\n      sstore\n      swap2\n      0x20\n      add\n      swap2\n      swap1\n      0x01\n      add\n      swap1\n      jump(tag_69)\n    tag_70:\n    tag_68:\n      pop\n      swap1\n      pop\n      tag_71\n      swap2\n      swap1\n      tag_72\n      jump\t// in\n    tag_71:\n      pop\n      swap1\n      jump\t// out\n    tag_72:\n    tag_73:\n      dup1\n      dup3\n      gt\n      iszero\n      tag_74\n      jumpi\n      0x00\n      dup2\n      0x00\n      swap1\n      sstore\n      pop\n      0x01\n      add\n      jump(tag_73)\n    tag_74:\n      pop\n      swap1\n      jump\t// out\n        /* \"#utility.yul\":88:205   */\n    tag_76:\n        /* \"#utility.yul\":197:198   */\n      0x00\n        /* \"#utility.yul\":194:195   */\n      dup1\n        /* \"#utility.yul\":187:199   */\n      revert\n        /* \"#utility.yul\":334:411   */\n    tag_78:\n        /* \"#utility.yul\":371:378   */\n      0x00\n        /* \"#utility.yul\":400:405   */\n      dup2\n        /* \"#utility.yul\":389:405   */\n      swap1\n      pop\n        /* \"#utility.yul\":334:411   */\n      swap2\n      swap1\n      pop\n      jump\t// out\n        /* \"#utility.yul\":417:539   */\n    tag_79:\n        /* \"#utility.yul\":490:514   */\n      tag_89\n        /* \"#utility.yul\":508:513   */\n      dup2\n        /* \"#utility.yul\":490:514   */\n      tag_78\n      jump\t// in\n    tag_89:\n        /* \"#utility.yul\":483:488   */\n      dup2\n        /* \"#utility.yul\":480:515   */\n      eq\n        /* \"#utility.yul\":470:533   */\n      tag_90\n      jumpi\n        /* \"#utility.yul\":529:530   */\n      0x00\n        /* \"#utility.yul\":526:527   */\n      dup1\n        /* \"#utility.yul\":519:531   */\n      revert\n        /* \"#utility.yul\":470:533   */\n    tag_90:\n        /* \"#utility.yul\":417:539   */\n      pop\n      jump\t// out\n        /* \"#utility.yul\":545:684   */\n    tag_80:\n        /* \"#utility.yul\":591:596   */\n      0x00\n        /* \"#utility.yul\":629:635   */\n      dup2\n        /* \"#utility.yul\":616:636   */\n      calldataload\n        /* \"#utility.yul\":607:636   */\n      swap1\n      pop\n        /* \"#utility.yul\":645:678   */\n      tag_92\n        /* \"#utility.yul\":672:677   */\n      dup2\n        /* \"#utility.yul\":645:678   */\n      tag_79\n      jump\t// in\n    tag_92:\n        /* \"#utility.yul\":545:684   */\n      swap3\n      swap2\n      pop\n      pop\n      jump\t// out\n        /* \"#utility.yul\":690:1019   */\n    tag_8:\n        /* \"#utility.yul\":749:755   */\n      0x00\n        /* \"#utility.yul\":798:800   */\n      0x20\n        /* \"#utility.yul\":786:795   */\n      dup3\n        /* \"#utility.yul\":777:784   */\n      dup5\n        /* \"#utility.yul\":773:796   */\n      sub\n        /* \"#utility.yul\":769:801   */\n      slt\n        /* \"#utility.yul\":766:885   */\n      iszero\n      tag_94\n      jumpi\n        /* \"#utility.yul\":804:883   */\n      tag_95\n      tag_76\n      jump\t// in\n    tag_95:\n        /* \"#utility.yul\":766:885   */\n    tag_94:\n        /* \"#utility.yul\":924:925   */\n      0x00\n        /* \"#utility.yul\":949:1002   */\n      tag_96\n        /* \"#utility.yul\":994:1001   */\n      dup5\n        /* \"#utility.yul\":985:991   */\n      dup3\n        /* \"#utility.yul\":974:983   */\n      dup6\n        /* \"#utility.yul\":970:992   */\n      add\n        /* \"#utility.yul\":949:1002   */\n      tag_80\n      jump\t// in\n    tag_96:\n        /* \"#utility.yul\":939:1002   */\n      swap2\n      pop\n        /* \"#utility.yul\":895:1012   */\n      pop\n        /* \"#utility.yul\":690:1019   */\n      swap3\n      swap2\n      pop\n      pop\n      jump\t// out\n        /* \"#utility.yul\":1025:1143   */\n    tag_81:\n        /* \"#utility.yul\":1112:1136   */\n      tag_98\n        /* \"#utility.yul\":1130:1135   */\n      dup2\n        /* \"#utility.yul\":1112:1136   */\n      tag_78\n      jump\t// in\n    tag_98:\n        /* \"#utility.yul\":1107:1110   */\n      dup3\n        /* \"#utility.yul\":1100:1137   */\n      mstore\n        /* \"#utility.yul\":1025:1143   */\n      pop\n      pop\n      jump\t// out\n        /* \"#utility.yul\":1149:1371   */\n    tag_14:\n        /* \"#utility.yul\":1242:1246   */\n      0x00\n        /* \"#utility.yul\":1280:1282   */\n      0x20\n        /* \"#utility.yul\":1269:1278   */\n      dup3\n        /* \"#utility.yul\":1265:1283   */\n      add\n        /* \"#utility.yul\":1257:1283   */\n      swap1\n      pop\n        /* \"#utility.yul\":1293:1364   */\n      tag_100\n        /* \"#utility.yul\":1361:1362   */\n      0x00\n        /* \"#utility.yul\":1350:1359   */\n      dup4\n        /* \"#utility.yul\":1346:1363   */\n      add\n        /* \"#utility.yul\":1337:1343   */\n      dup5\n        /* \"#utility.yul\":1293:1364   */\n      tag_81\n      jump\t// in\n    tag_100:\n        /* \"#utility.yul\":1149:1371   */\n      swap3\n      swap2\n      pop\n      pop\n      jump\t// out\n        /* \"#utility.yul\":1377:1557   */\n    tag_82:\n        /* \"#utility.yul\":1425:1502   */\n      0x4e487b7100000000000000000000000000000000000000000000000000000000\n        /* \"#utility.yul\":1422:1423   */\n      0x00\n        /* \"#utility.yul\":1415:1503   */\n      mstore\n        /* \"#utility.yul\":1522:1526   */\n      0x11\n        /* \"#utility.yul\":1519:1520   */\n      0x04\n        /* \"#utility.yul\":1512:1527   */\n      mstore\n        /* \"#utility.yul\":1546:1550   */\n      0x24\n        /* \"#utility.yul\":1543:1544   */\n      0x00\n        /* \"#utility.yul\":1536:1551   */\n      revert\n        /* \"#utility.yul\":1563:1757   */\n    tag_19:\n        /* \"#utility.yul\":1603:1607   */\n      0x00\n        /* \"#utility.yul\":1623:1643   */\n      tag_103\n        /* \"#utility.yul\":1641:1642   */\n      dup3\n        /* \"#utility.yul\":1623:1643   */\n      tag_78\n      jump\t// in\n    tag_103:\n        /* \"#utility.yul\":1618:1643   */\n      swap2\n      pop\n        /* \"#utility.yul\":1657:1677   */\n      tag_104\n        /* \"#utility.yul\":1675:1676   */\n      dup4\n        /* \"#utility.yul\":1657:1677   */\n      tag_78\n      jump\t// in\n    tag_104:\n        /* \"#utility.yul\":1652:1677   */\n      swap3\n      pop\n        /* \"#utility.yul\":1701:1702   */\n      dup3\n        /* \"#utility.yul\":1698:1699   */\n      dup3\n        /* \"#utility.yul\":1694:1703   */\n      sub\n        /* \"#utility.yul\":1686:1703   */\n      swap1\n      pop\n        /* \"#utility.yul\":1725:1726   */\n      dup2\n        /* \"#utility.yul\":1719:1723   */\n      dup2\n        /* \"#utility.yul\":1716:1727   */\n      gt\n        /* \"#utility.yul\":1713:1750   */\n      iszero\n      tag_105\n      jumpi\n        /* \"#utility.yul\":1730:1748   */\n      tag_106\n      tag_82\n      jump\t// in\n    tag_106:\n        /* \"#utility.yul\":1713:1750   */\n    tag_105:\n        /* \"#utility.yul\":1563:1757   */\n      swap3\n      swap2\n      pop\n      pop\n      jump\t// out\n        /* \"#utility.yul\":1763:1943   */\n    tag_22:\n        /* \"#utility.yul\":1811:1888   */\n      0x4e487b7100000000000000000000000000000000000000000000000000000000\n        /* \"#utility.yul\":1808:1809   */\n      0x00\n        /* \"#utility.yul\":1801:1889   */\n      mstore\n        /* \"#utility.yul\":1908:1912   */\n      0x32\n        /* \"#utility.yul\":1905:1906   */\n      0x04\n        /* \"#utility.yul\":1898:1913   */\n      mstore\n        /* \"#utility.yul\":1932:1936   */\n      0x24\n        /* \"#utility.yul\":1929:1930   */\n      0x00\n        /* \"#utility.yul\":1922:1937   */\n      revert\n        /* \"#utility.yul\":1949:2129   */\n    tag_29:\n        /* \"#utility.yul\":1997:2074   */\n      0x4e487b7100000000000000000000000000000000000000000000000000000000\n        /* \"#utility.yul\":1994:1995   */\n      0x00\n        /* \"#utility.yul\":1987:2075   */\n      mstore\n        /* \"#utility.yul\":2094:2098   */\n      0x31\n        /* \"#utility.yul\":2091:2092   */\n      0x04\n        /* \"#utility.yul\":2084:2099   */\n      mstore\n        /* \"#utility.yul\":2118:2122   */\n      0x24\n        /* \"#utility.yul\":2115:2116   */\n      0x00\n        /* \"#utility.yul\":2108:2123   */\n      revert\n        /* \"#utility.yul\":2135:2315   */\n    tag_39:\n        /* \"#utility.yul\":2183:2260   */\n      0x4e487b7100000000000000000000000000000000000000000000000000000000\n        /* \"#utility.yul\":2180:2181   */\n      0x00\n        /* \"#utility.yul\":2173:2261   */\n      mstore\n        /* \"#utility.yul\":2280:2284   */\n      0x01\n        /* \"#utility.yul\":2277:2278   */\n      0x04\n        /* \"#utility.yul\":2270:2285   */\n      mstore\n        /* \"#utility.yul\":2304:2308   */\n      0x24\n        /* \"#utility.yul\":2301:2302   */\n      0x00\n        /* \"#utility.yul\":2294:2309   */\n      revert\n\n    auxdata: 0xa26469706673582212204b91887653def9fc7c04e41437b1ecf0f5667f2d5a5c52ccbc2adb938ec6da8b64736f6c63430008120033\n}\n",
				"bytecode": {
					"linkReferences": {},
					"object": "608060405234801561001057600080fd5b506104d6806100206000396000f3fe608060405234801561001057600080fd5b50600436106100415760003560e01c80634cc822151461004657806371e5ee5f14610062578063f8a8fd6d14610092575b600080fd5b610060600480360381019061005b9190610359565b61009c565b005b61007c60048036038101906100779190610359565b610119565b6040516100899190610395565b60405180910390f35b61009a61013d565b005b600060016000805490506100b091906103df565b815481106100c1576100c0610413565b5b9060005260206000200154600082815481106100e0576100df610413565b5b90600052602060002001819055506000805480610100576100ff610442565b5b6001900381819060005260206000200160009055905550565b6000818154811061012957600080fd5b906000526020600020016000915090505481565b6040518060800160405280600160ff168152602001600260ff168152602001600360ff168152602001600460ff16815250600090600461017e9291906102af565b50610189600161009c565b60036000805490501461019f5761019e610471565b5b6001600080815481106101b5576101b4610413565b5b9060005260206000200154146101ce576101cd610471565b5b600460006001815481106101e5576101e4610413565b5b9060005260206000200154146101fe576101fd610471565b5b6003600060028154811061021557610214610413565b5b90600052602060002001541461022e5761022d610471565b5b610238600261009c565b60026000805490501461024e5761024d610471565b5b60016000808154811061026457610263610413565b5b90600052602060002001541461027d5761027c610471565b5b6004600060018154811061029457610293610413565b5b9060005260206000200154146102ad576102ac610471565b5b565b8280548282559060005260206000209081019282156102f0579160200282015b828111156102ef578251829060ff169055916020019190600101906102cf565b5b5090506102fd9190610301565b5090565b5b8082111561031a576000816000905550600101610302565b5090565b600080fd5b6000819050919050565b61033681610323565b811461034157600080fd5b50565b6000813590506103538161032d565b92915050565b60006020828403121561036f5761036e61031e565b5b600061037d84828501610344565b91505092915050565b61038f81610323565b82525050565b60006020820190506103aa6000830184610386565b92915050565b7f4e487b7100000000000000000000000000000000000000000000000000000000600052601160045260246000fd5b60006103ea82610323565b91506103f583610323565b925082820390508181111561040d5761040c6103b0565b5b92915050565b7f4e487b7100000000000000000000000000000000000000000000000000000000600052603260045260246000fd5b7f4e487b7100000000000000000000000000000000000000000000000000000000600052603160045260246000fd5b7f4e487b7100000000000000000000000000000000000000000000000000000000600052600160045260246000fdfea26469706673582212204b91887653def9fc7c04e41437b1ecf0f5667f2d5a5c52ccbc2adb938ec6da8b64736f6c63430008120033",
					"opcodes": "PUSH1 0x80 PUSH1 0x40 MSTORE CALLVALUE DUP1 ISZERO PUSH2 0x10 JUMPI PUSH1 0x0 DUP1 REVERT JUMPDEST POP PUSH2 0x4D6 DUP1 PUSH2 0x20 PUSH1 0x0 CODECOPY PUSH1 0x0 RETURN INVALID PUSH1 0x80 PUSH1 0x40 MSTORE CALLVALUE DUP1 ISZERO PUSH2 0x10 JUMPI PUSH1 0x0 DUP1 REVERT JUMPDEST POP PUSH1 0x4 CALLDATASIZE LT PUSH2 0x41 JUMPI PUSH1 0x0 CALLDATALOAD PUSH1 0xE0 SHR DUP1 PUSH4 0x4CC82215 EQ PUSH2 0x46 JUMPI DUP1 PUSH4 0x71E5EE5F EQ PUSH2 0x62 JUMPI DUP1 PUSH4 0xF8A8FD6D EQ PUSH2 0x92 JUMPI JUMPDEST PUSH1 0x0 DUP1 REVERT JUMPDEST PUSH2 0x60 PUSH1 0x4 DUP1 CALLDATASIZE SUB DUP2 ADD SWAP1 PUSH2 0x5B SWAP2 SWAP1 PUSH2 0x359 JUMP JUMPDEST PUSH2 0x9C JUMP JUMPDEST STOP JUMPDEST PUSH2 0x7C PUSH1 0x4 DUP1 CALLDATASIZE SUB DUP2 ADD SWAP1 PUSH2 0x77 SWAP2 SWAP1 PUSH2 0x359 JUMP JUMPDEST PUSH2 0x119 JUMP JUMPDEST PUSH1 0x40 MLOAD PUSH2 0x89 SWAP2 SWAP1 PUSH2 0x395 JUMP JUMPDEST PUSH1 0x40 MLOAD DUP1 SWAP2 SUB SWAP1 RETURN JUMPDEST PUSH2 0x9A PUSH2 0x13D JUMP JUMPDEST STOP JUMPDEST PUSH1 0x0 PUSH1 0x1 PUSH1 0x0 DUP1 SLOAD SWAP1 POP PUSH2 0xB0 SWAP2 SWAP1 PUSH2 0x3DF JUMP JUMPDEST DUP2 SLOAD DUP2 LT PUSH2 0xC1 JUMPI PUSH2 0xC0 PUSH2 0x413 JUMP JUMPDEST JUMPDEST SWAP1 PUSH1 0x0 MSTORE PUSH1 0x20 PUSH1 0x0 KECCAK256 ADD SLOAD PUSH1 0x0 DUP3 DUP2 SLOAD DUP2 LT PUSH2 0xE0 JUMPI PUSH2 0xDF PUSH2 0x413 JUMP JUMPDEST JUMPDEST SWAP1 PUSH1 0x0 MSTORE PUSH1 0x20 PUSH1 0x0 KECCAK256 ADD DUP2 SWAP1 SSTORE POP PUSH1 0x0 DUP1 SLOAD DUP1 PUSH2 0x100 JUMPI PUSH2 0xFF PUSH2 0x442 JUMP JUMPDEST JUMPDEST PUSH1 0x1 SWAP1 SUB DUP2 DUP2 SWAP1 PUSH1 0x0 MSTORE PUSH1 0x20 PUSH1 0x0 KECCAK256 ADD PUSH1 0x0 SWAP1 SSTORE SWAP1 SSTORE POP JUMP JUMPDEST PUSH1 0x0 DUP2 DUP2 SLOAD DUP2 LT PUSH2 0x129 JUMPI PUSH1 0x0 DUP1 REVERT JUMPDEST SWAP1 PUSH1 0x0 MSTORE PUSH1 0x20 PUSH1 0x0 KECCAK256 ADD PUSH1 0x0 SWAP2 POP SWAP1 POP SLOAD DUP2 JUMP JUMPDEST PUSH1 0x40 MLOAD DUP1 PUSH1 0x80 ADD PUSH1 0x40 MSTORE DUP1 PUSH1 0x1 PUSH1 0xFF AND DUP2 MSTORE PUSH1 0x20 ADD PUSH1 0x2 PUSH1 0xFF AND DUP2 MSTORE PUSH1 0x20 ADD PUSH1 0x3 PUSH1 0xFF AND DUP2 MSTORE PUSH1 0x20 ADD PUSH1 0x4 PUSH1 0xFF AND DUP2 MSTORE POP PUSH1 0x0 SWAP1 PUSH1 0x4 PUSH2 0x17E SWAP3 SWAP2 SWAP1 PUSH2 0x2AF JUMP JUMPDEST POP PUSH2 0x189 PUSH1 0x1 PUSH2 0x9C JUMP JUMPDEST PUSH1 0x3 PUSH1 0x0 DUP1 SLOAD SWAP1 POP EQ PUSH2 0x19F JUMPI PUSH2 0x19E PUSH2 0x471 JUMP JUMPDEST JUMPDEST PUSH1 0x1 PUSH1 0x0 DUP1 DUP2 SLOAD DUP2 LT PUSH2 0x1B5 JUMPI PUSH2 0x1B4 PUSH2 0x413 JUMP JUMPDEST JUMPDEST SWAP1 PUSH1 0x0 MSTORE PUSH1 0x20 PUSH1 0x0 KECCAK256 ADD SLOAD EQ PUSH2 0x1CE JUMPI PUSH2 0x1CD PUSH2 0x471 JUMP JUMPDEST JUMPDEST PUSH1 0x4 PUSH1 0x0 PUSH1 0x1 DUP2 SLOAD DUP2 LT PUSH2 0x1E5 JUMPI PUSH2 0x1E4 PUSH2 0x413 JUMP JUMPDEST JUMPDEST SWAP1 PUSH1 0x0 MSTORE PUSH1 0x20 PUSH1 0x0 KECCAK256 ADD SLOAD EQ PUSH2 0x1FE JUMPI PUSH2 0x1FD PUSH2 0x471 JUMP JUMPDEST JUMPDEST PUSH1 0x3 PUSH1 0x0 PUSH1 0x2 DUP2 SLOAD DUP2 LT PUSH2 0x215 JUMPI PUSH2 0x214 PUSH2 0x413 JUMP JUMPDEST JUMPDEST SWAP1 PUSH1 0x0 MSTORE PUSH1 0x20 PUSH1 0x0 KECCAK256 ADD SLOAD EQ PUSH2 0x22E JUMPI PUSH2 0x22D PUSH2 0x471 JUMP JUMPDEST JUMPDEST PUSH2 0x238 PUSH1 0x2 PUSH2 0x9C JUMP JUMPDEST PUSH1 0x2 PUSH1 0x0 DUP1 SLOAD SWAP1 POP EQ PUSH2 0x24E JUMPI PUSH2 0x24D PUSH2 0x471 JUMP JUMPDEST JUMPDEST PUSH1 0x1 PUSH1 0x0 DUP1 DUP2 SLOAD DUP2 LT PUSH2 0x264 JUMPI PUSH2 0x263 PUSH2 0x413 JUMP JUMPDEST JUMPDEST SWAP1 PUSH1 0x0 MSTORE PUSH1 0x20 PUSH1 0x0 KECCAK256 ADD SLOAD EQ PUSH2 0x27D JUMPI PUSH2 0x27C PUSH2 0x471 JUMP JUMPDEST JUMPDEST PUSH1 0x4 PUSH1 0x0 PUSH1 0x1 DUP2 SLOAD DUP2 LT PUSH2 0x294 JUMPI PUSH2 0x293 PUSH2 0x413 JUMP JUMPDEST JUMPDEST SWAP1 PUSH1 0x0 MSTORE PUSH1 0x20 PUSH1 0x0 KECCAK256 ADD SLOAD EQ PUSH2 0x2AD JUMPI PUSH2 0x2AC PUSH2 0x471 JUMP JUMPDEST JUMPDEST JUMP JUMPDEST DUP3 DUP1 SLOAD DUP3 DUP3 SSTORE SWAP1 PUSH1 0x0 MSTORE PUSH1 0x20 PUSH1 0x0 KECCAK256 SWAP1 DUP2 ADD SWAP3 DUP3 ISZERO PUSH2 0x2F0 JUMPI SWAP2 PUSH1 0x20 MUL DUP3 ADD JUMPDEST DUP3 DUP2 GT ISZERO PUSH2 0x2EF JUMPI DUP3 MLOAD DUP3 SWAP1 PUSH1 0xFF AND SWAP1 SSTORE SWAP2 PUSH1 0x20 ADD SWAP2 SWAP1 PUSH1 0x1 ADD SWAP1 PUSH2 0x2CF JUMP JUMPDEST JUMPDEST POP SWAP1 POP PUSH2 0x2FD SWAP2 SWAP1 PUSH2 0x301 JUMP JUMPDEST POP SWAP1 JUMP JUMPDEST JUMPDEST DUP1 DUP3 GT ISZERO PUSH2 0x31A JUMPI PUSH1 0x0 DUP2 PUSH1 0x0 SWAP1 SSTORE POP PUSH1 0x1 ADD PUSH2 0x302 JUMP JUMPDEST POP SWAP1 JUMP JUMPDEST PUSH1 0x0 DUP1 REVERT JUMPDEST PUSH1 0x0 DUP2 SWAP1 POP SWAP2 SWAP1 POP JUMP JUMPDEST PUSH2 0x336 DUP2 PUSH2 0x323 JUMP JUMPDEST DUP2 EQ PUSH2 0x341 JUMPI PUSH1 0x0 DUP1 REVERT JUMPDEST POP JUMP JUMPDEST PUSH1 0x0 DUP2 CALLDATALOAD SWAP1 POP PUSH2 0x353 DUP2 PUSH2 0x32D JUMP JUMPDEST SWAP3 SWAP2 POP POP JUMP JUMPDEST PUSH1 0x0 PUSH1 0x20 DUP3 DUP5 SUB SLT ISZERO PUSH2 0x36F JUMPI PUSH2 0x36E PUSH2 0x31E JUMP JUMPDEST JUMPDEST PUSH1 0x0 PUSH2 0x37D DUP5 DUP3 DUP6 ADD PUSH2 0x344 JUMP JUMPDEST SWAP2 POP POP SWAP3 SWAP2 POP POP JUMP JUMPDEST PUSH2 0x38F DUP2 PUSH2 0x323 JUMP JUMPDEST DUP3 MSTORE POP POP JUMP JUMPDEST PUSH1 0x0 PUSH1 0x20 DUP3 ADD SWAP1 POP PUSH2 0x3AA PUSH1 0x0 DUP4 ADD DUP5 PUSH2 0x386 JUMP JUMPDEST SWAP3 SWAP2 POP POP JUMP JUMPDEST PUSH32 0x4E487B7100000000000000000000000000000000000000000000000000000000 PUSH1 0x0 MSTORE PUSH1 0x11 PUSH1 0x4 MSTORE PUSH1 0x24 PUSH1 0x0 REVERT JUMPDEST PUSH1 0x0 PUSH2 0x3EA DUP3 PUSH2 0x323 JUMP JUMPDEST SWAP2 POP PUSH2 0x3F5 DUP4 PUSH2 0x323 JUMP JUMPDEST SWAP3 POP DUP3 DUP3 SUB SWAP1 POP DUP2 DUP2 GT ISZERO PUSH2 0x40D JUMPI PUSH2 0x40C PUSH2 0x3B0 JUMP JUMPDEST JUMPDEST SWAP3 SWAP2 POP POP JUMP JUMPDEST PUSH32 0x4E487B7100000000000000000000000000000000000000000000000000000000 PUSH1 0x0 MSTORE PUSH1 0x32 PUSH1 0x4 MSTORE PUSH1 0x24 PUSH1 0x0 REVERT JUMPDEST PUSH32 0x4E487B7100000000000000000000000000000000000000000000000000000000 PUSH1 0x0 MSTORE PUSH1 0x31 PUSH1 0x4 MSTORE PUSH1 0x24 PUSH1 0x0 REVERT JUMPDEST PUSH32 0x4E487B7100000000000000000000000000000000000000000000000000000000 PUSH1 0x0 MSTORE PUSH1 0x1 PUSH1 0x4 MSTORE PUSH1 0x24 PUSH1 0x0 REVERT INVALID LOG2 PUSH5 0x6970667358 0x22 SLT KECCAK256 0x4B SWAP2 DUP9 PUSH23 0x53DEF9FC7C04E41437B1ECF0F5667F2D5A5C52CCBC2ADB SWAP4 DUP15 0xC6 0xDA DUP12 PUSH5 0x736F6C6343 STOP ADDMOD SLT STOP CALLER "
				},
				"gasEstimates": {
					"creation": {
						"codeDepositCost": "247600",
						"executionCost": "287",
						"totalCost": "247887"
					},
					"external": {
						"arr(uint256)": "infinite",
						"remove(uint256)": "infinite",
						"test()": "infinite"
					}
				},
				"methodIdentifiers": {
					"arr(uint256)": "71e5ee5f",
					"remove(uint256)": "4cc82215",
					"test()": "f8a8fd6d"
				}
			},
			"storageLayout": {
				"storage": [
					{
						"astId": 4,
						"contract": "contracts/ArrayReplaceFromEnd.sol:ArrayReplaceFromEnd",
						"label": "arr",
						"offset": 0,
						"slot": "0",
						"type": "t_array(t_uint256)dyn_storage"
					}
				],
				"types": {
					"t_array(t_uint256)dyn_storage": {
						"base": "t_uint256",
						"encoding": "dynamic_array",
						"label": "uint256[]",
						"numberOfBytes": "32"
					},
					"t_uint256": {
						"encoding": "inplace",
						"label": "uint256",
						"numberOfBytes": "32"
					}
				}
			},
			"userdoc": {
				"kind": "user",
				"methods": {},
				"version": 1
			}
		}
	}
}