{
	"data": {
		"bytecode": {
			"linkReferences": {},
			"object": "608060405234801561001057600080fd5b506106b8806100206000396000f3fe608060405234801561001057600080fd5b50600436106100415760003560e01c80634cc822151461004657806371e5ee5f14610062578063f8a8fd6d14610092575b600080fd5b610060600480360381019061005b9190610442565b61009c565b005b61007c60048036038101906100779190610442565b61018e565b604051610089919061047e565b60405180910390f35b61009a6101b2565b005b60008054905081106100e3576040517f08c379a00000000000000000000000000000000000000000000000000000000081526004016100da906104f6565b60405180910390fd5b60008190505b60016000805490506100fb9190610545565b8110156101625760006001826101119190610579565b81548110610122576101216105ad565b5b906000526020600020015460008281548110610141576101406105ad565b5b9060005260206000200181905550808061015a906105dc565b9150506100e9565b50600080548061017557610174610624565b5b6001900381819060005260206000200160009055905550565b6000818154811061019e57600080fd5b906000526020600020016000915090505481565b6040518060c00160405280600160ff168152602001600260ff168152602001600360ff168152602001600460ff168152602001600560ff168152602001600660ff168152506000906006610207929190610346565b50610212600261009c565b600160008081548110610228576102276105ad565b5b90600052602060002001541461024157610240610653565b5b60026000600181548110610258576102576105ad565b5b90600052602060002001541461027157610270610653565b5b60046000600281548110610288576102876105ad565b5b9060005260206000200154146102a1576102a0610653565b5b600560006003815481106102b8576102b76105ad565b5b9060005260206000200154146102d1576102d0610653565b5b600660006004815481106102e8576102e76105ad565b5b90600052602060002001541461030157610300610653565b5b6040518060200160405280600160ff168152506000906001610324929190610398565b5061032f600061009c565b600080805490501461034457610343610653565b5b565b828054828255906000526020600020908101928215610387579160200282015b82811115610386578251829060ff16905591602001919060010190610366565b5b50905061039491906103ea565b5090565b8280548282559060005260206000209081019282156103d9579160200282015b828111156103d8578251829060ff169055916020019190600101906103b8565b5b5090506103e691906103ea565b5090565b5b808211156104035760008160009055506001016103eb565b5090565b600080fd5b6000819050919050565b61041f8161040c565b811461042a57600080fd5b50565b60008135905061043c81610416565b92915050565b60006020828403121561045857610457610407565b5b60006104668482850161042d565b91505092915050565b6104788161040c565b82525050565b6000602082019050610493600083018461046f565b92915050565b600082825260208201905092915050565b7f696e6465782064696c7561722062617461732100000000000000000000000000600082015250565b60006104e0601383610499565b91506104eb826104aa565b602082019050919050565b6000602082019050818103600083015261050f816104d3565b9050919050565b7f4e487b7100000000000000000000000000000000000000000000000000000000600052601160045260246000fd5b60006105508261040c565b915061055b8361040c565b925082820390508181111561057357610572610516565b5b92915050565b60006105848261040c565b915061058f8361040c565b92508282019050808211156105a7576105a6610516565b5b92915050565b7f4e487b7100000000000000000000000000000000000000000000000000000000600052603260045260246000fd5b60006105e78261040c565b91507fffffffffffffffffffffffffffffffffffffffffffffffffffffffffffffffff820361061957610618610516565b5b600182019050919050565b7f4e487b7100000000000000000000000000000000000000000000000000000000600052603160045260246000fd5b7f4e487b7100000000000000000000000000000000000000000000000000000000600052600160045260246000fdfea2646970667358221220a894ac04e5c8dce8b878eccbc5ce47f61eb5768cb67f74f8152971aca16c64a864736f6c63430008120033",
			"opcodes": "PUSH1 0x80 PUSH1 0x40 MSTORE CALLVALUE DUP1 ISZERO PUSH2 0x10 JUMPI PUSH1 0x0 DUP1 REVERT JUMPDEST POP PUSH2 0x6B8 DUP1 PUSH2 0x20 PUSH1 0x0 CODECOPY PUSH1 0x0 RETURN INVALID PUSH1 0x80 PUSH1 0x40 MSTORE CALLVALUE DUP1 ISZERO PUSH2 0x10 JUMPI PUSH1 0x0 DUP1 REVERT JUMPDEST POP PUSH1 0x4 CALLDATASIZE LT PUSH2 0x41 JUMPI PUSH1 0x0 CALLDATALOAD PUSH1 0xE0 SHR DUP1 PUSH4 0x4CC82215 EQ PUSH2 0x46 JUMPI DUP1 PUSH4 0x71E5EE5F EQ PUSH2 0x62 JUMPI DUP1 PUSH4 0xF8A8FD6D EQ PUSH2 0x92 JUMPI JUMPDEST PUSH1 0x0 DUP1 REVERT JUMPDEST PUSH2 0x60 PUSH1 0x4 DUP1 CALLDATASIZE SUB DUP2 ADD SWAP1 PUSH2 0x5B SWAP2 SWAP1 PUSH2 0x442 JUMP JUMPDEST PUSH2 0x9C JUMP JUMPDEST STOP JUMPDEST PUSH2 0x7C PUSH1 0x4 DUP1 CALLDATASIZE SUB DUP2 ADD SWAP1 PUSH2 0x77 SWAP2 SWAP1 PUSH2 0x442 JUMP JUMPDEST PUSH2 0x18E JUMP JUMPDEST PUSH1 0x40 MLOAD PUSH2 0x89 SWAP2 SWAP1 PUSH2 0x47E JUMP JUMPDEST PUSH1 0x40 MLOAD DUP1 SWAP2 SUB SWAP1 RETURN JUMPDEST PUSH2 0x9A PUSH2 0x1B2 JUMP JUMPDEST STOP JUMPDEST PUSH1 0x0 DUP1 SLOAD SWAP1 POP DUP2 LT PUSH2 0xE3 JUMPI PUSH1 0x40 MLOAD PUSH32 0x8C379A000000000000000000000000000000000000000000000000000000000 DUP2 MSTORE PUSH1 0x4 ADD PUSH2 0xDA SWAP1 PUSH2 0x4F6 JUMP JUMPDEST PUSH1 0x40 MLOAD DUP1 SWAP2 SUB SWAP1 REVERT JUMPDEST PUSH1 0x0 DUP2 SWAP1 POP JUMPDEST PUSH1 0x1 PUSH1 0x0 DUP1 SLOAD SWAP1 POP PUSH2 0xFB SWAP2 SWAP1 PUSH2 0x545 JUMP JUMPDEST DUP2 LT ISZERO PUSH2 0x162 JUMPI PUSH1 0x0 PUSH1 0x1 DUP3 PUSH2 0x111 SWAP2 SWAP1 PUSH2 0x579 JUMP JUMPDEST DUP2 SLOAD DUP2 LT PUSH2 0x122 JUMPI PUSH2 0x121 PUSH2 0x5AD JUMP JUMPDEST JUMPDEST SWAP1 PUSH1 0x0 MSTORE PUSH1 0x20 PUSH1 0x0 KECCAK256 ADD SLOAD PUSH1 0x0 DUP3 DUP2 SLOAD DUP2 LT PUSH2 0x141 JUMPI PUSH2 0x140 PUSH2 0x5AD JUMP JUMPDEST JUMPDEST SWAP1 PUSH1 0x0 MSTORE PUSH1 0x20 PUSH1 0x0 KECCAK256 ADD DUP2 SWAP1 SSTORE POP DUP1 DUP1 PUSH2 0x15A SWAP1 PUSH2 0x5DC JUMP JUMPDEST SWAP2 POP POP PUSH2 0xE9 JUMP JUMPDEST POP PUSH1 0x0 DUP1 SLOAD DUP1 PUSH2 0x175 JUMPI PUSH2 0x174 PUSH2 0x624 JUMP JUMPDEST JUMPDEST PUSH1 0x1 SWAP1 SUB DUP2 DUP2 SWAP1 PUSH1 0x0 MSTORE PUSH1 0x20 PUSH1 0x0 KECCAK256 ADD PUSH1 0x0 SWAP1 SSTORE SWAP1 SSTORE POP JUMP JUMPDEST PUSH1 0x0 DUP2 DUP2 SLOAD DUP2 LT PUSH2 0x19E JUMPI PUSH1 0x0 DUP1 REVERT JUMPDEST SWAP1 PUSH1 0x0 MSTORE PUSH1 0x20 PUSH1 0x0 KECCAK256 ADD PUSH1 0x0 SWAP2 POP SWAP1 POP SLOAD DUP2 JUMP JUMPDEST PUSH1 0x40 MLOAD DUP1 PUSH1 0xC0 ADD PUSH1 0x40 MSTORE DUP1 PUSH1 0x1 PUSH1 0xFF AND DUP2 MSTORE PUSH1 0x20 ADD PUSH1 0x2 PUSH1 0xFF AND DUP2 MSTORE PUSH1 0x20 ADD PUSH1 0x3 PUSH1 0xFF AND DUP2 MSTORE PUSH1 0x20 ADD PUSH1 0x4 PUSH1 0xFF AND DUP2 MSTORE PUSH1 0x20 ADD PUSH1 0x5 PUSH1 0xFF AND DUP2 MSTORE PUSH1 0x20 ADD PUSH1 0x6 PUSH1 0xFF AND DUP2 MSTORE POP PUSH1 0x0 SWAP1 PUSH1 0x6 PUSH2 0x207 SWAP3 SWAP2 SWAP1 PUSH2 0x346 JUMP JUMPDEST POP PUSH2 0x212 PUSH1 0x2 PUSH2 0x9C JUMP JUMPDEST PUSH1 0x1 PUSH1 0x0 DUP1 DUP2 SLOAD DUP2 LT PUSH2 0x228 JUMPI PUSH2 0x227 PUSH2 0x5AD JUMP JUMPDEST JUMPDEST SWAP1 PUSH1 0x0 MSTORE PUSH1 0x20 PUSH1 0x0 KECCAK256 ADD SLOAD EQ PUSH2 0x241 JUMPI PUSH2 0x240 PUSH2 0x653 JUMP JUMPDEST JUMPDEST PUSH1 0x2 PUSH1 0x0 PUSH1 0x1 DUP2 SLOAD DUP2 LT PUSH2 0x258 JUMPI PUSH2 0x257 PUSH2 0x5AD JUMP JUMPDEST JUMPDEST SWAP1 PUSH1 0x0 MSTORE PUSH1 0x20 PUSH1 0x0 KECCAK256 ADD SLOAD EQ PUSH2 0x271 JUMPI PUSH2 0x270 PUSH2 0x653 JUMP JUMPDEST JUMPDEST PUSH1 0x4 PUSH1 0x0 PUSH1 0x2 DUP2 SLOAD DUP2 LT PUSH2 0x288 JUMPI PUSH2 0x287 PUSH2 0x5AD JUMP JUMPDEST JUMPDEST SWAP1 PUSH1 0x0 MSTORE PUSH1 0x20 PUSH1 0x0 KECCAK256 ADD SLOAD EQ PUSH2 0x2A1 JUMPI PUSH2 0x2A0 PUSH2 0x653 JUMP JUMPDEST JUMPDEST PUSH1 0x5 PUSH1 0x0 PUSH1 0x3 DUP2 SLOAD DUP2 LT PUSH2 0x2B8 JUMPI PUSH2 0x2B7 PUSH2 0x5AD JUMP JUMPDEST JUMPDEST SWAP1 PUSH1 0x0 MSTORE PUSH1 0x20 PUSH1 0x0 KECCAK256 ADD SLOAD EQ PUSH2 0x2D1 JUMPI PUSH2 0x2D0 PUSH2 0x653 JUMP JUMPDEST JUMPDEST PUSH1 0x6 PUSH1 0x0 PUSH1 0x4 DUP2 SLOAD DUP2 LT PUSH2 0x2E8 JUMPI PUSH2 0x2E7 PUSH2 0x5AD JUMP JUMPDEST JUMPDEST SWAP1 PUSH1 0x0 MSTORE PUSH1 0x20 PUSH1 0x0 KECCAK256 ADD SLOAD EQ PUSH2 0x301 JUMPI PUSH2 0x300 PUSH2 0x653 JUMP JUMPDEST JUMPDEST PUSH1 0x40 MLOAD DUP1 PUSH1 0x20 ADD PUSH1 0x40 MSTORE DUP1 PUSH1 0x1 PUSH1 0xFF AND DUP2 MSTORE POP PUSH1 0x0 SWAP1 PUSH1 0x1 PUSH2 0x324 SWAP3 SWAP2 SWAP1 PUSH2 0x398 JUMP JUMPDEST POP PUSH2 0x32F PUSH1 0x0 PUSH2 0x9C JUMP JUMPDEST PUSH1 0x0 DUP1 DUP1 SLOAD SWAP1 POP EQ PUSH2 0x344 JUMPI PUSH2 0x343 PUSH2 0x653 JUMP JUMPDEST JUMPDEST JUMP JUMPDEST DUP3 DUP1 SLOAD DUP3 DUP3 SSTORE SWAP1 PUSH1 0x0 MSTORE PUSH1 0x20 PUSH1 0x0 KECCAK256 SWAP1 DUP2 ADD SWAP3 DUP3 ISZERO PUSH2 0x387 JUMPI SWAP2 PUSH1 0x20 MUL DUP3 ADD JUMPDEST DUP3 DUP2 GT ISZERO PUSH2 0x386 JUMPI DUP3 MLOAD DUP3 SWAP1 PUSH1 0xFF AND SWAP1 SSTORE SWAP2 PUSH1 0x20 ADD SWAP2 SWAP1 PUSH1 0x1 ADD SWAP1 PUSH2 0x366 JUMP JUMPDEST JUMPDEST POP SWAP1 POP PUSH2 0x394 SWAP2 SWAP1 PUSH2 0x3EA JUMP JUMPDEST POP SWAP1 JUMP JUMPDEST DUP3 DUP1 SLOAD DUP3 DUP3 SSTORE SWAP1 PUSH1 0x0 MSTORE PUSH1 0x20 PUSH1 0x0 KECCAK256 SWAP1 DUP2 ADD SWAP3 DUP3 ISZERO PUSH2 0x3D9 JUMPI SWAP2 PUSH1 0x20 MUL DUP3 ADD JUMPDEST DUP3 DUP2 GT ISZERO PUSH2 0x3D8 JUMPI DUP3 MLOAD DUP3 SWAP1 PUSH1 0xFF AND SWAP1 SSTORE SWAP2 PUSH1 0x20 ADD SWAP2 SWAP1 PUSH1 0x1 ADD SWAP1 PUSH2 0x3B8 JUMP JUMPDEST JUMPDEST POP SWAP1 POP PUSH2 0x3E6 SWAP2 SWAP1 PUSH2 0x3EA JUMP JUMPDEST POP SWAP1 JUMP JUMPDEST JUMPDEST DUP1 DUP3 GT ISZERO PUSH2 0x403 JUMPI PUSH1 0x0 DUP2 PUSH1 0x0 SWAP1 SSTORE POP PUSH1 0x1 ADD PUSH2 0x3EB JUMP JUMPDEST POP SWAP1 JUMP JUMPDEST PUSH1 0x0 DUP1 REVERT JUMPDEST PUSH1 0x0 DUP2 SWAP1 POP SWAP2 SWAP1 POP JUMP JUMPDEST PUSH2 0x41F DUP2 PUSH2 0x40C JUMP JUMPDEST DUP2 EQ PUSH2 0x42A JUMPI PUSH1 0x0 DUP1 REVERT JUMPDEST POP JUMP JUMPDEST PUSH1 0x0 DUP2 CALLDATALOAD SWAP1 POP PUSH2 0x43C DUP2 PUSH2 0x416 JUMP JUMPDEST SWAP3 SWAP2 POP POP JUMP JUMPDEST PUSH1 0x0 PUSH1 0x20 DUP3 DUP5 SUB SLT ISZERO PUSH2 0x458 JUMPI PUSH2 0x457 PUSH2 0x407 JUMP JUMPDEST JUMPDEST PUSH1 0x0 PUSH2 0x466 DUP5 DUP3 DUP6 ADD PUSH2 0x42D JUMP JUMPDEST SWAP2 POP POP SWAP3 SWAP2 POP POP JUMP JUMPDEST PUSH2 0x478 DUP2 PUSH2 0x40C JUMP JUMPDEST DUP3 MSTORE POP POP JUMP JUMPDEST PUSH1 0x0 PUSH1 0x20 DUP3 ADD SWAP1 POP PUSH2 0x493 PUSH1 0x0 DUP4 ADD DUP5 PUSH2 0x46F JUMP JUMPDEST SWAP3 SWAP2 POP POP JUMP JUMPDEST PUSH1 0x0 DUP3 DUP3 MSTORE PUSH1 0x20 DUP3 ADD SWAP1 POP SWAP3 SWAP2 POP POP JUMP JUMPDEST PUSH32 0x696E6465782064696C7561722062617461732100000000000000000000000000 PUSH1 0x0 DUP3 ADD MSTORE POP JUMP JUMPDEST PUSH1 0x0 PUSH2 0x4E0 PUSH1 0x13 DUP4 PUSH2 0x499 JUMP JUMPDEST SWAP2 POP PUSH2 0x4EB DUP3 PUSH2 0x4AA JUMP JUMPDEST PUSH1 0x20 DUP3 ADD SWAP1 POP SWAP2 SWAP1 POP JUMP JUMPDEST PUSH1 0x0 PUSH1 0x20 DUP3 ADD SWAP1 POP DUP2 DUP2 SUB PUSH1 0x0 DUP4 ADD MSTORE PUSH2 0x50F DUP2 PUSH2 0x4D3 JUMP JUMPDEST SWAP1 POP SWAP2 SWAP1 POP JUMP JUMPDEST PUSH32 0x4E487B7100000000000000000000000000000000000000000000000000000000 PUSH1 0x0 MSTORE PUSH1 0x11 PUSH1 0x4 MSTORE PUSH1 0x24 PUSH1 0x0 REVERT JUMPDEST PUSH1 0x0 PUSH2 0x550 DUP3 PUSH2 0x40C JUMP JUMPDEST SWAP2 POP PUSH2 0x55B DUP4 PUSH2 0x40C JUMP JUMPDEST SWAP3 POP DUP3 DUP3 SUB SWAP1 POP DUP2 DUP2 GT ISZERO PUSH2 0x573 JUMPI PUSH2 0x572 PUSH2 0x516 JUMP JUMPDEST JUMPDEST SWAP3 SWAP2 POP POP JUMP JUMPDEST PUSH1 0x0 PUSH2 0x584 DUP3 PUSH2 0x40C JUMP JUMPDEST SWAP2 POP PUSH2 0x58F DUP4 PUSH2 0x40C JUMP JUMPDEST SWAP3 POP DUP3 DUP3 ADD SWAP1 POP DUP1 DUP3 GT ISZERO PUSH2 0x5A7 JUMPI PUSH2 0x5A6 PUSH2 0x516 JUMP JUMPDEST JUMPDEST SWAP3 SWAP2 POP POP JUMP JUMPDEST PUSH32 0x4E487B7100000000000000000000000000000000000000000000000000000000 PUSH1 0x0 MSTORE PUSH1 0x32 PUSH1 0x4 MSTORE PUSH1 0x24 PUSH1 0x0 REVERT JUMPDEST PUSH1 0x0 PUSH2 0x5E7 DUP3 PUSH2 0x40C JUMP JUMPDEST SWAP2 POP PUSH32 0xFFFFFFFFFFFFFFFFFFFFFFFFFFFFFFFFFFFFFFFFFFFFFFFFFFFFFFFFFFFFFFFF DUP3 SUB PUSH2 0x619 JUMPI PUSH2 0x618 PUSH2 0x516 JUMP JUMPDEST JUMPDEST PUSH1 0x1 DUP3 ADD SWAP1 POP SWAP2 SWAP1 POP JUMP JUMPDEST PUSH32 0x4E487B7100000000000000000000000000000000000000000000000000000000 PUSH1 0x0 MSTORE PUSH1 0x31 PUSH1 0x4 MSTORE PUSH1 0x24 PUSH1 0x0 REVERT JUMPDEST PUSH32 0x4E487B7100000000000000000000000000000000000000000000000000000000 PUSH1 0x0 MSTORE PUSH1 0x1 PUSH1 0x4 MSTORE PUSH1 0x24 PUSH1 0x0 REVERT INVALID LOG2 PUSH5 0x6970667358 0x22 SLT KECCAK256 0xA8 SWAP5 0xAC DIV 0xE5 0xC8 0xDC 0xE8 0xB8 PUSH25 0xECCBC5CE47F61EB5768CB67F74F8152971ACA16C64A864736F PUSH13 0x63430008120033000000000000 "
		},
		"gasEstimates": {
			"creation": {
				"codeDepositCost": "344000",
				"executionCost": "380",
				"totalCost": "344380"
			},
			"external": {
				"arr(uint256)": "infinite",
				"remove(uint256)": "infinite",
				"test()": "infinite"
			}
		},
		"methodIdentifiers": {
			"arr(uint256)": "71e5ee5f",
			"remove(uint256)": "4cc82215",
			"test()": "f8a8fd6d"
		}
	},
	"abi": [
		{
			"inputs": [
				{
					"internalType": "uint256",
					"name": "",
					"type": "uint256"
				}
			],
			"name": "arr",
			"outputs": [
				{
					"internalType": "uint256",
					"name": "",
					"type": "uint256"
				}
			],
			"stateMutability": "view",
			"type": "function"
		},
		{
			"inputs": [
				{
					"internalType": "uint256",
					"name": "_index",
					"type": "uint256"
				}
			],
			"name": "remove",
			"outputs": [],
			"stateMutability": "nonpayable",
			"type": "function"
		},
		{
			"inputs": [],
			"name": "test",
			"outputs": [],
			"stateMutability": "nonpayable",
			"type": "function"
		}
	]
}