{
	"data": {
		"bytecode": {
			"linkReferences": {},
			"object": "608060405234801561001057600080fd5b50336000806101000a81548173ffffffffffffffffffffffffffffffffffffffff021916908373ffffffffffffffffffffffffffffffffffffffff160217905550456001819055506101ed806100676000396000f3fe608060405234801561001057600080fd5b50600436106100415760003560e01c8063203c971414610046578063637f9ca714610064578063c13b7fac14610084575b600080fd5b61004e6100a2565b60405161005b9190610131565b60405180910390f35b61006c6100c6565b60405161007b93929190610165565b60405180910390f35b61008c6100ea565b604051610099919061019c565b60405180910390f35b60008054906101000a900473ffffffffffffffffffffffffffffffffffffffff1681565b6000806000805a9050600033905060003a9050818382955095509550505050909192565b60015481565b600073ffffffffffffffffffffffffffffffffffffffff82169050919050565b600061011b826100f0565b9050919050565b61012b81610110565b82525050565b60006020820190506101466000830184610122565b92915050565b6000819050919050565b61015f8161014c565b82525050565b600060608201905061017a6000830186610122565b6101876020830185610156565b6101946040830184610156565b949350505050565b60006020820190506101b16000830184610156565b9291505056fea2646970667358221220a2b5a0fae0c7253267e2b2bf6b01bb1447031b880e19d218e818dc32e718db5964736f6c63430008120033",
			"opcodes": "PUSH1 0x80 PUSH1 0x40 MSTORE CALLVALUE DUP1 ISZERO PUSH2 0x10 JUMPI PUSH1 0x0 DUP1 REVERT JUMPDEST POP CALLER PUSH1 0x0 DUP1 PUSH2 0x100 EXP DUP2 SLOAD DUP2 PUSH20 0xFFFFFFFFFFFFFFFFFFFFFFFFFFFFFFFFFFFFFFFF MUL NOT AND SWAP1 DUP4 PUSH20 0xFFFFFFFFFFFFFFFFFFFFFFFFFFFFFFFFFFFFFFFF AND MUL OR SWAP1 SSTORE POP GASLIMIT PUSH1 0x1 DUP2 SWAP1 SSTORE POP PUSH2 0x1ED DUP1 PUSH2 0x67 PUSH1 0x0 CODECOPY PUSH1 0x0 RETURN INVALID PUSH1 0x80 PUSH1 0x40 MSTORE CALLVALUE DUP1 ISZERO PUSH2 0x10 JUMPI PUSH1 0x0 DUP1 REVERT JUMPDEST POP PUSH1 0x4 CALLDATASIZE LT PUSH2 0x41 JUMPI PUSH1 0x0 CALLDATALOAD PUSH1 0xE0 SHR DUP1 PUSH4 0x203C9714 EQ PUSH2 0x46 JUMPI DUP1 PUSH4 0x637F9CA7 EQ PUSH2 0x64 JUMPI DUP1 PUSH4 0xC13B7FAC EQ PUSH2 0x84 JUMPI JUMPDEST PUSH1 0x0 DUP1 REVERT JUMPDEST PUSH2 0x4E PUSH2 0xA2 JUMP JUMPDEST PUSH1 0x40 MLOAD PUSH2 0x5B SWAP2 SWAP1 PUSH2 0x131 JUMP JUMPDEST PUSH1 0x40 MLOAD DUP1 SWAP2 SUB SWAP1 RETURN JUMPDEST PUSH2 0x6C PUSH2 0xC6 JUMP JUMPDEST PUSH1 0x40 MLOAD PUSH2 0x7B SWAP4 SWAP3 SWAP2 SWAP1 PUSH2 0x165 JUMP JUMPDEST PUSH1 0x40 MLOAD DUP1 SWAP2 SUB SWAP1 RETURN JUMPDEST PUSH2 0x8C PUSH2 0xEA JUMP JUMPDEST PUSH1 0x40 MLOAD PUSH2 0x99 SWAP2 SWAP1 PUSH2 0x19C JUMP JUMPDEST PUSH1 0x40 MLOAD DUP1 SWAP2 SUB SWAP1 RETURN JUMPDEST PUSH1 0x0 DUP1 SLOAD SWAP1 PUSH2 0x100 EXP SWAP1 DIV PUSH20 0xFFFFFFFFFFFFFFFFFFFFFFFFFFFFFFFFFFFFFFFF AND DUP2 JUMP JUMPDEST PUSH1 0x0 DUP1 PUSH1 0x0 DUP1 GAS SWAP1 POP PUSH1 0x0 CALLER SWAP1 POP PUSH1 0x0 GASPRICE SWAP1 POP DUP2 DUP4 DUP3 SWAP6 POP SWAP6 POP SWAP6 POP POP POP POP SWAP1 SWAP2 SWAP3 JUMP JUMPDEST PUSH1 0x1 SLOAD DUP2 JUMP JUMPDEST PUSH1 0x0 PUSH20 0xFFFFFFFFFFFFFFFFFFFFFFFFFFFFFFFFFFFFFFFF DUP3 AND SWAP1 POP SWAP2 SWAP1 POP JUMP JUMPDEST PUSH1 0x0 PUSH2 0x11B DUP3 PUSH2 0xF0 JUMP JUMPDEST SWAP1 POP SWAP2 SWAP1 POP JUMP JUMPDEST PUSH2 0x12B DUP2 PUSH2 0x110 JUMP JUMPDEST DUP3 MSTORE POP POP JUMP JUMPDEST PUSH1 0x0 PUSH1 0x20 DUP3 ADD SWAP1 POP PUSH2 0x146 PUSH1 0x0 DUP4 ADD DUP5 PUSH2 0x122 JUMP JUMPDEST SWAP3 SWAP2 POP POP JUMP JUMPDEST PUSH1 0x0 DUP2 SWAP1 POP SWAP2 SWAP1 POP JUMP JUMPDEST PUSH2 0x15F DUP2 PUSH2 0x14C JUMP JUMPDEST DUP3 MSTORE POP POP JUMP JUMPDEST PUSH1 0x0 PUSH1 0x60 DUP3 ADD SWAP1 POP PUSH2 0x17A PUSH1 0x0 DUP4 ADD DUP7 PUSH2 0x122 JUMP JUMPDEST PUSH2 0x187 PUSH1 0x20 DUP4 ADD DUP6 PUSH2 0x156 JUMP JUMPDEST PUSH2 0x194 PUSH1 0x40 DUP4 ADD DUP5 PUSH2 0x156 JUMP JUMPDEST SWAP5 SWAP4 POP POP POP POP JUMP JUMPDEST PUSH1 0x0 PUSH1 0x20 DUP3 ADD SWAP1 POP PUSH2 0x1B1 PUSH1 0x0 DUP4 ADD DUP5 PUSH2 0x156 JUMP JUMPDEST SWAP3 SWAP2 POP POP JUMP INVALID LOG2 PUSH5 0x6970667358 0x22 SLT KECCAK256 LOG2 0xB5 LOG0 STATICCALL 0xE0 0xC7 0x25 ORIGIN PUSH8 0xE2B2BF6B01BB1447 SUB SHL DUP9 0xE NOT 0xD2 XOR 0xE8 XOR 0xDC ORIGIN 0xE7 XOR 0xDB MSIZE PUSH5 0x736F6C6343 STOP ADDMOD SLT STOP CALLER "
		},
		"gasEstimates": {
			"creation": {
				"codeDepositCost": "98600",
				"executionCost": "46526",
				"totalCost": "145126"
			},
			"external": {
				"informasiTransaksi()": "infinite",
				"jumlahGasAwal()": "2451",
				"pemilikKontrak()": "2489"
			}
		},
		"methodIdentifiers": {
			"informasiTransaksi()": "637f9ca7",
			"jumlahGasAwal()": "c13b7fac",
			"pemilikKontrak()": "203c9714"
		}
	},
	"abi": [
		{
			"inputs": [],
			"stateMutability": "nonpayable",
			"type": "constructor"
		},
		{
			"inputs": [],
			"name": "informasiTransaksi",
			"outputs": [
				{
					"internalType": "address",
					"name": "",
					"type": "address"
				},
				{
					"internalType": "uint256",
					"name": "",
					"type": "uint256"
				},
				{
					"internalType": "uint256",
					"name": "",
					"type": "uint256"
				}
			],
			"stateMutability": "view",
			"type": "function"
		},
		{
			"inputs": [],
			"name": "jumlahGasAwal",
			"outputs": [
				{
					"internalType": "uint256",
					"name": "",
					"type": "uint256"
				}
			],
			"stateMutability": "view",
			"type": "function"
		},
		{
			"inputs": [],
			"name": "pemilikKontrak",
			"outputs": [
				{
					"internalType": "address",
					"name": "",
					"type": "address"
				}
			],
			"stateMutability": "view",
			"type": "function"
		}
	]
}