{
	"data": {
		"bytecode": {
			"linkReferences": {},
			"object": "6080604052600a60015534801561001557600080fd5b50336000806101000a81548173ffffffffffffffffffffffffffffffffffffffff021916908373ffffffffffffffffffffffffffffffffffffffff160217905550610699806100656000396000f3fe608060405234801561001057600080fd5b50600436106100575760003560e01c80630c55699c1461005c5780633a9ebefd1461007a5780638da5cb5b14610096578063a6f9dae1146100b4578063cf309012146100d0575b600080fd5b6100646100ee565b6040516100719190610347565b60405180910390f35b610094600480360381019061008f9190610393565b6100f4565b005b61009e6101b5565b6040516100ab9190610401565b60405180910390f35b6100ce60048036038101906100c99190610448565b6101d9565b005b6100d861031b565b6040516100e59190610490565b60405180910390f35b60015481565b600260009054906101000a900460ff1615610144576040517f08c379a000000000000000000000000000000000000000000000000000000000815260040161013b90610508565b60405180910390fd5b6001600260006101000a81548160ff02191690831515021790555080600160008282546101719190610557565b925050819055506001811115610197576101966001826101919190610557565b6100f4565b5b6000600260006101000a81548160ff02191690831515021790555050565b60008054906101000a900473ffffffffffffffffffffffffffffffffffffffff1681565b60008054906101000a900473ffffffffffffffffffffffffffffffffffffffff1673ffffffffffffffffffffffffffffffffffffffff163373ffffffffffffffffffffffffffffffffffffffff1614610267576040517f08c379a000000000000000000000000000000000000000000000000000000000815260040161025e906105d7565b60405180910390fd5b80600073ffffffffffffffffffffffffffffffffffffffff168173ffffffffffffffffffffffffffffffffffffffff16036102d7576040517f08c379a00000000000000000000000000000000000000000000000000000000081526004016102ce90610643565b60405180910390fd5b816000806101000a81548173ffffffffffffffffffffffffffffffffffffffff021916908373ffffffffffffffffffffffffffffffffffffffff1602179055505050565b600260009054906101000a900460ff1681565b6000819050919050565b6103418161032e565b82525050565b600060208201905061035c6000830184610338565b92915050565b600080fd5b6103708161032e565b811461037b57600080fd5b50565b60008135905061038d81610367565b92915050565b6000602082840312156103a9576103a8610362565b5b60006103b78482850161037e565b91505092915050565b600073ffffffffffffffffffffffffffffffffffffffff82169050919050565b60006103eb826103c0565b9050919050565b6103fb816103e0565b82525050565b600060208201905061041660008301846103f2565b92915050565b610425816103e0565b811461043057600080fd5b50565b6000813590506104428161041c565b92915050565b60006020828403121561045e5761045d610362565b5b600061046c84828501610433565b91505092915050565b60008115159050919050565b61048a81610475565b82525050565b60006020820190506104a56000830184610481565b92915050565b600082825260208201905092915050565b7f546964616b20626f6c6568207265656e74726173690000000000000000000000600082015250565b60006104f26015836104ab565b91506104fd826104bc565b602082019050919050565b60006020820190508181036000830152610521816104e5565b9050919050565b7f4e487b7100000000000000000000000000000000000000000000000000000000600052601160045260246000fd5b60006105628261032e565b915061056d8361032e565b925082820390508181111561058557610584610528565b5b92915050565b7f42756b616e2050656d696c696b00000000000000000000000000000000000000600082015250565b60006105c1600d836104ab565b91506105cc8261058b565b602082019050919050565b600060208201905081810360008301526105f0816105b4565b9050919050565b7f416c616d617420746964616b2076616c69640000000000000000000000000000600082015250565b600061062d6012836104ab565b9150610638826105f7565b602082019050919050565b6000602082019050818103600083015261065c81610620565b905091905056fea264697066735822122023330e15910281d86275454687b1f7dcbb4fb460a0d16b82192fa7e3d9ff1e9764736f6c63430008120033",
			"opcodes": "PUSH1 0x80 PUSH1 0x40 MSTORE PUSH1 0xA PUSH1 0x1 SSTORE CALLVALUE DUP1 ISZERO PUSH2 0x15 JUMPI PUSH1 0x0 DUP1 REVERT JUMPDEST POP CALLER PUSH1 0x0 DUP1 PUSH2 0x100 EXP DUP2 SLOAD DUP2 PUSH20 0xFFFFFFFFFFFFFFFFFFFFFFFFFFFFFFFFFFFFFFFF MUL NOT AND SWAP1 DUP4 PUSH20 0xFFFFFFFFFFFFFFFFFFFFFFFFFFFFFFFFFFFFFFFF AND MUL OR SWAP1 SSTORE POP PUSH2 0x699 DUP1 PUSH2 0x65 PUSH1 0x0 CODECOPY PUSH1 0x0 RETURN INVALID PUSH1 0x80 PUSH1 0x40 MSTORE CALLVALUE DUP1 ISZERO PUSH2 0x10 JUMPI PUSH1 0x0 DUP1 REVERT JUMPDEST POP PUSH1 0x4 CALLDATASIZE LT PUSH2 0x57 JUMPI PUSH1 0x0 CALLDATALOAD PUSH1 0xE0 SHR DUP1 PUSH4 0xC55699C EQ PUSH2 0x5C JUMPI DUP1 PUSH4 0x3A9EBEFD EQ PUSH2 0x7A JUMPI DUP1 PUSH4 0x8DA5CB5B EQ PUSH2 0x96 JUMPI DUP1 PUSH4 0xA6F9DAE1 EQ PUSH2 0xB4 JUMPI DUP1 PUSH4 0xCF309012 EQ PUSH2 0xD0 JUMPI JUMPDEST PUSH1 0x0 DUP1 REVERT JUMPDEST PUSH2 0x64 PUSH2 0xEE JUMP JUMPDEST PUSH1 0x40 MLOAD PUSH2 0x71 SWAP2 SWAP1 PUSH2 0x347 JUMP JUMPDEST PUSH1 0x40 MLOAD DUP1 SWAP2 SUB SWAP1 RETURN JUMPDEST PUSH2 0x94 PUSH1 0x4 DUP1 CALLDATASIZE SUB DUP2 ADD SWAP1 PUSH2 0x8F SWAP2 SWAP1 PUSH2 0x393 JUMP JUMPDEST PUSH2 0xF4 JUMP JUMPDEST STOP JUMPDEST PUSH2 0x9E PUSH2 0x1B5 JUMP JUMPDEST PUSH1 0x40 MLOAD PUSH2 0xAB SWAP2 SWAP1 PUSH2 0x401 JUMP JUMPDEST PUSH1 0x40 MLOAD DUP1 SWAP2 SUB SWAP1 RETURN JUMPDEST PUSH2 0xCE PUSH1 0x4 DUP1 CALLDATASIZE SUB DUP2 ADD SWAP1 PUSH2 0xC9 SWAP2 SWAP1 PUSH2 0x448 JUMP JUMPDEST PUSH2 0x1D9 JUMP JUMPDEST STOP JUMPDEST PUSH2 0xD8 PUSH2 0x31B JUMP JUMPDEST PUSH1 0x40 MLOAD PUSH2 0xE5 SWAP2 SWAP1 PUSH2 0x490 JUMP JUMPDEST PUSH1 0x40 MLOAD DUP1 SWAP2 SUB SWAP1 RETURN JUMPDEST PUSH1 0x1 SLOAD DUP2 JUMP JUMPDEST PUSH1 0x2 PUSH1 0x0 SWAP1 SLOAD SWAP1 PUSH2 0x100 EXP SWAP1 DIV PUSH1 0xFF AND ISZERO PUSH2 0x144 JUMPI PUSH1 0x40 MLOAD PUSH32 0x8C379A000000000000000000000000000000000000000000000000000000000 DUP2 MSTORE PUSH1 0x4 ADD PUSH2 0x13B SWAP1 PUSH2 0x508 JUMP JUMPDEST PUSH1 0x40 MLOAD DUP1 SWAP2 SUB SWAP1 REVERT JUMPDEST PUSH1 0x1 PUSH1 0x2 PUSH1 0x0 PUSH2 0x100 EXP DUP2 SLOAD DUP2 PUSH1 0xFF MUL NOT AND SWAP1 DUP4 ISZERO ISZERO MUL OR SWAP1 SSTORE POP DUP1 PUSH1 0x1 PUSH1 0x0 DUP3 DUP3 SLOAD PUSH2 0x171 SWAP2 SWAP1 PUSH2 0x557 JUMP JUMPDEST SWAP3 POP POP DUP2 SWAP1 SSTORE POP PUSH1 0x1 DUP2 GT ISZERO PUSH2 0x197 JUMPI PUSH2 0x196 PUSH1 0x1 DUP3 PUSH2 0x191 SWAP2 SWAP1 PUSH2 0x557 JUMP JUMPDEST PUSH2 0xF4 JUMP JUMPDEST JUMPDEST PUSH1 0x0 PUSH1 0x2 PUSH1 0x0 PUSH2 0x100 EXP DUP2 SLOAD DUP2 PUSH1 0xFF MUL NOT AND SWAP1 DUP4 ISZERO ISZERO MUL OR SWAP1 SSTORE POP POP JUMP JUMPDEST PUSH1 0x0 DUP1 SLOAD SWAP1 PUSH2 0x100 EXP SWAP1 DIV PUSH20 0xFFFFFFFFFFFFFFFFFFFFFFFFFFFFFFFFFFFFFFFF AND DUP2 JUMP JUMPDEST PUSH1 0x0 DUP1 SLOAD SWAP1 PUSH2 0x100 EXP SWAP1 DIV PUSH20 0xFFFFFFFFFFFFFFFFFFFFFFFFFFFFFFFFFFFFFFFF AND PUSH20 0xFFFFFFFFFFFFFFFFFFFFFFFFFFFFFFFFFFFFFFFF AND CALLER PUSH20 0xFFFFFFFFFFFFFFFFFFFFFFFFFFFFFFFFFFFFFFFF AND EQ PUSH2 0x267 JUMPI PUSH1 0x40 MLOAD PUSH32 0x8C379A000000000000000000000000000000000000000000000000000000000 DUP2 MSTORE PUSH1 0x4 ADD PUSH2 0x25E SWAP1 PUSH2 0x5D7 JUMP JUMPDEST PUSH1 0x40 MLOAD DUP1 SWAP2 SUB SWAP1 REVERT JUMPDEST DUP1 PUSH1 0x0 PUSH20 0xFFFFFFFFFFFFFFFFFFFFFFFFFFFFFFFFFFFFFFFF AND DUP2 PUSH20 0xFFFFFFFFFFFFFFFFFFFFFFFFFFFFFFFFFFFFFFFF AND SUB PUSH2 0x2D7 JUMPI PUSH1 0x40 MLOAD PUSH32 0x8C379A000000000000000000000000000000000000000000000000000000000 DUP2 MSTORE PUSH1 0x4 ADD PUSH2 0x2CE SWAP1 PUSH2 0x643 JUMP JUMPDEST PUSH1 0x40 MLOAD DUP1 SWAP2 SUB SWAP1 REVERT JUMPDEST DUP2 PUSH1 0x0 DUP1 PUSH2 0x100 EXP DUP2 SLOAD DUP2 PUSH20 0xFFFFFFFFFFFFFFFFFFFFFFFFFFFFFFFFFFFFFFFF MUL NOT AND SWAP1 DUP4 PUSH20 0xFFFFFFFFFFFFFFFFFFFFFFFFFFFFFFFFFFFFFFFF AND MUL OR SWAP1 SSTORE POP POP POP JUMP JUMPDEST PUSH1 0x2 PUSH1 0x0 SWAP1 SLOAD SWAP1 PUSH2 0x100 EXP SWAP1 DIV PUSH1 0xFF AND DUP2 JUMP JUMPDEST PUSH1 0x0 DUP2 SWAP1 POP SWAP2 SWAP1 POP JUMP JUMPDEST PUSH2 0x341 DUP2 PUSH2 0x32E JUMP JUMPDEST DUP3 MSTORE POP POP JUMP JUMPDEST PUSH1 0x0 PUSH1 0x20 DUP3 ADD SWAP1 POP PUSH2 0x35C PUSH1 0x0 DUP4 ADD DUP5 PUSH2 0x338 JUMP JUMPDEST SWAP3 SWAP2 POP POP JUMP JUMPDEST PUSH1 0x0 DUP1 REVERT JUMPDEST PUSH2 0x370 DUP2 PUSH2 0x32E JUMP JUMPDEST DUP2 EQ PUSH2 0x37B JUMPI PUSH1 0x0 DUP1 REVERT JUMPDEST POP JUMP JUMPDEST PUSH1 0x0 DUP2 CALLDATALOAD SWAP1 POP PUSH2 0x38D DUP2 PUSH2 0x367 JUMP JUMPDEST SWAP3 SWAP2 POP POP JUMP JUMPDEST PUSH1 0x0 PUSH1 0x20 DUP3 DUP5 SUB SLT ISZERO PUSH2 0x3A9 JUMPI PUSH2 0x3A8 PUSH2 0x362 JUMP JUMPDEST JUMPDEST PUSH1 0x0 PUSH2 0x3B7 DUP5 DUP3 DUP6 ADD PUSH2 0x37E JUMP JUMPDEST SWAP2 POP POP SWAP3 SWAP2 POP POP JUMP JUMPDEST PUSH1 0x0 PUSH20 0xFFFFFFFFFFFFFFFFFFFFFFFFFFFFFFFFFFFFFFFF DUP3 AND SWAP1 POP SWAP2 SWAP1 POP JUMP JUMPDEST PUSH1 0x0 PUSH2 0x3EB DUP3 PUSH2 0x3C0 JUMP JUMPDEST SWAP1 POP SWAP2 SWAP1 POP JUMP JUMPDEST PUSH2 0x3FB DUP2 PUSH2 0x3E0 JUMP JUMPDEST DUP3 MSTORE POP POP JUMP JUMPDEST PUSH1 0x0 PUSH1 0x20 DUP3 ADD SWAP1 POP PUSH2 0x416 PUSH1 0x0 DUP4 ADD DUP5 PUSH2 0x3F2 JUMP JUMPDEST SWAP3 SWAP2 POP POP JUMP JUMPDEST PUSH2 0x425 DUP2 PUSH2 0x3E0 JUMP JUMPDEST DUP2 EQ PUSH2 0x430 JUMPI PUSH1 0x0 DUP1 REVERT JUMPDEST POP JUMP JUMPDEST PUSH1 0x0 DUP2 CALLDATALOAD SWAP1 POP PUSH2 0x442 DUP2 PUSH2 0x41C JUMP JUMPDEST SWAP3 SWAP2 POP POP JUMP JUMPDEST PUSH1 0x0 PUSH1 0x20 DUP3 DUP5 SUB SLT ISZERO PUSH2 0x45E JUMPI PUSH2 0x45D PUSH2 0x362 JUMP JUMPDEST JUMPDEST PUSH1 0x0 PUSH2 0x46C DUP5 DUP3 DUP6 ADD PUSH2 0x433 JUMP JUMPDEST SWAP2 POP POP SWAP3 SWAP2 POP POP JUMP JUMPDEST PUSH1 0x0 DUP2 ISZERO ISZERO SWAP1 POP SWAP2 SWAP1 POP JUMP JUMPDEST PUSH2 0x48A DUP2 PUSH2 0x475 JUMP JUMPDEST DUP3 MSTORE POP POP JUMP JUMPDEST PUSH1 0x0 PUSH1 0x20 DUP3 ADD SWAP1 POP PUSH2 0x4A5 PUSH1 0x0 DUP4 ADD DUP5 PUSH2 0x481 JUMP JUMPDEST SWAP3 SWAP2 POP POP JUMP JUMPDEST PUSH1 0x0 DUP3 DUP3 MSTORE PUSH1 0x20 DUP3 ADD SWAP1 POP SWAP3 SWAP2 POP POP JUMP JUMPDEST PUSH32 0x546964616B20626F6C6568207265656E74726173690000000000000000000000 PUSH1 0x0 DUP3 ADD MSTORE POP JUMP JUMPDEST PUSH1 0x0 PUSH2 0x4F2 PUSH1 0x15 DUP4 PUSH2 0x4AB JUMP JUMPDEST SWAP2 POP PUSH2 0x4FD DUP3 PUSH2 0x4BC JUMP JUMPDEST PUSH1 0x20 DUP3 ADD SWAP1 POP SWAP2 SWAP1 POP JUMP JUMPDEST PUSH1 0x0 PUSH1 0x20 DUP3 ADD SWAP1 POP DUP2 DUP2 SUB PUSH1 0x0 DUP4 ADD MSTORE PUSH2 0x521 DUP2 PUSH2 0x4E5 JUMP JUMPDEST SWAP1 POP SWAP2 SWAP1 POP JUMP JUMPDEST PUSH32 0x4E487B7100000000000000000000000000000000000000000000000000000000 PUSH1 0x0 MSTORE PUSH1 0x11 PUSH1 0x4 MSTORE PUSH1 0x24 PUSH1 0x0 REVERT JUMPDEST PUSH1 0x0 PUSH2 0x562 DUP3 PUSH2 0x32E JUMP JUMPDEST SWAP2 POP PUSH2 0x56D DUP4 PUSH2 0x32E JUMP JUMPDEST SWAP3 POP DUP3 DUP3 SUB SWAP1 POP DUP2 DUP2 GT ISZERO PUSH2 0x585 JUMPI PUSH2 0x584 PUSH2 0x528 JUMP JUMPDEST JUMPDEST SWAP3 SWAP2 POP POP JUMP JUMPDEST PUSH32 0x42756B616E2050656D696C696B00000000000000000000000000000000000000 PUSH1 0x0 DUP3 ADD MSTORE POP JUMP JUMPDEST PUSH1 0x0 PUSH2 0x5C1 PUSH1 0xD DUP4 PUSH2 0x4AB JUMP JUMPDEST SWAP2 POP PUSH2 0x5CC DUP3 PUSH2 0x58B JUMP JUMPDEST PUSH1 0x20 DUP3 ADD SWAP1 POP SWAP2 SWAP1 POP JUMP JUMPDEST PUSH1 0x0 PUSH1 0x20 DUP3 ADD SWAP1 POP DUP2 DUP2 SUB PUSH1 0x0 DUP4 ADD MSTORE PUSH2 0x5F0 DUP2 PUSH2 0x5B4 JUMP JUMPDEST SWAP1 POP SWAP2 SWAP1 POP JUMP JUMPDEST PUSH32 0x416C616D617420746964616B2076616C69640000000000000000000000000000 PUSH1 0x0 DUP3 ADD MSTORE POP JUMP JUMPDEST PUSH1 0x0 PUSH2 0x62D PUSH1 0x12 DUP4 PUSH2 0x4AB JUMP JUMPDEST SWAP2 POP PUSH2 0x638 DUP3 PUSH2 0x5F7 JUMP JUMPDEST PUSH1 0x20 DUP3 ADD SWAP1 POP SWAP2 SWAP1 POP JUMP JUMPDEST PUSH1 0x0 PUSH1 0x20 DUP3 ADD SWAP1 POP DUP2 DUP2 SUB PUSH1 0x0 DUP4 ADD MSTORE PUSH2 0x65C DUP2 PUSH2 0x620 JUMP JUMPDEST SWAP1 POP SWAP2 SWAP1 POP JUMP INVALID LOG2 PUSH5 0x6970667358 0x22 SLT KECCAK256 0x23 CALLER 0xE ISZERO SWAP2 MUL DUP2 0xD8 PUSH3 0x754546 DUP8 0xB1 0xF7 0xDC 0xBB 0x4F 0xB4 PUSH1 0xA0 0xD1 PUSH12 0x82192FA7E3D9FF1E9764736F PUSH13 0x63430008120033000000000000 "
		},
		"gasEstimates": {
			"creation": {
				"codeDepositCost": "337800",
				"executionCost": "46746",
				"totalCost": "384546"
			},
			"external": {
				"changeOwner(address)": "26973",
				"decrement(uint256)": "infinite",
				"locked()": "2537",
				"owner()": "2533",
				"x()": "2407"
			}
		},
		"methodIdentifiers": {
			"changeOwner(address)": "a6f9dae1",
			"decrement(uint256)": "3a9ebefd",
			"locked()": "cf309012",
			"owner()": "8da5cb5b",
			"x()": "0c55699c"
		}
	},
	"abi": [
		{
			"inputs": [],
			"stateMutability": "nonpayable",
			"type": "constructor"
		},
		{
			"inputs": [
				{
					"internalType": "address",
					"name": "_newOnwer",
					"type": "address"
				}
			],
			"name": "changeOwner",
			"outputs": [],
			"stateMutability": "nonpayable",
			"type": "function"
		},
		{
			"inputs": [
				{
					"internalType": "uint256",
					"name": "i",
					"type": "uint256"
				}
			],
			"name": "decrement",
			"outputs": [],
			"stateMutability": "nonpayable",
			"type": "function"
		},
		{
			"inputs": [],
			"name": "locked",
			"outputs": [
				{
					"internalType": "bool",
					"name": "",
					"type": "bool"
				}
			],
			"stateMutability": "view",
			"type": "function"
		},
		{
			"inputs": [],
			"name": "owner",
			"outputs": [
				{
					"internalType": "address",
					"name": "",
					"type": "address"
				}
			],
			"stateMutability": "view",
			"type": "function"
		},
		{
			"inputs": [],
			"name": "x",
			"outputs": [
				{
					"internalType": "uint256",
					"name": "",
					"type": "uint256"
				}
			],
			"stateMutability": "view",
			"type": "function"
		}
	]
}